{
	"contracts/Election.sol": {
		"Election": {
			"abi": [
				{
					"inputs": [],
					"stateMutability": "nonpayable",
					"type": "constructor"
				},
				{
					"anonymous": false,
					"inputs": [
						{
							"indexed": true,
							"internalType": "uint256",
							"name": "_candidateId",
							"type": "uint256"
						}
					],
					"name": "votedEvent",
					"type": "event"
				},
				{
					"inputs": [
						{
							"internalType": "uint256",
							"name": "",
							"type": "uint256"
						}
					],
					"name": "candidates",
					"outputs": [
						{
							"internalType": "uint256",
							"name": "id",
							"type": "uint256"
						},
						{
							"internalType": "string",
							"name": "name",
							"type": "string"
						},
						{
							"internalType": "uint256",
							"name": "voteCount",
							"type": "uint256"
						}
					],
					"stateMutability": "view",
					"type": "function"
				},
				{
					"inputs": [],
					"name": "candidatesCount",
					"outputs": [
						{
							"internalType": "uint256",
							"name": "",
							"type": "uint256"
						}
					],
					"stateMutability": "view",
					"type": "function"
				},
				{
					"inputs": [],
					"name": "end",
					"outputs": [],
					"stateMutability": "nonpayable",
					"type": "function"
				},
				{
					"inputs": [
						{
							"internalType": "uint256",
							"name": "_candidateId",
							"type": "uint256"
						}
					],
					"name": "vote",
					"outputs": [],
					"stateMutability": "nonpayable",
					"type": "function"
				},
				{
					"inputs": [
						{
							"internalType": "address",
							"name": "",
							"type": "address"
						}
					],
					"name": "voters",
					"outputs": [
						{
							"internalType": "bool",
							"name": "",
							"type": "bool"
						}
					],
					"stateMutability": "view",
					"type": "function"
				}
			],
			"devdoc": {
				"kind": "dev",
				"methods": {},
				"version": 1
			},
			"evm": {
				"assembly": "    /* \"contracts/Election.sol\":35:1417  contract Election {\r... */\n  mstore(0x40, 0x80)\n    /* \"contracts/Election.sol\":171:175  true */\n  0x01\n    /* \"contracts/Election.sol\":156:175  bool goingon = true */\n  0x00\n  dup1\n  0x0100\n  exp\n  dup2\n  sload\n  dup2\n  0xff\n  mul\n  not\n  and\n  swap1\n  dup4\n  iszero\n  iszero\n  mul\n  or\n  swap1\n  sstore\n  pop\n    /* \"contracts/Election.sol\":383:794  constructor () public {\r... */\n  callvalue\n  dup1\n  iszero\n  tag_1\n  jumpi\n  0x00\n  dup1\n  revert\ntag_1:\n  pop\n    /* \"contracts/Election.sol\":416:443  addCandidate(\"Candidate 1\") */\n  tag_4\n  mload(0x40)\n  dup1\n  0x40\n  add\n  0x40\n  mstore\n  dup1\n  0x0b\n  dup2\n  mstore\n  0x20\n  add\n  0x43616e6469646174652031000000000000000000000000000000000000000000\n  dup2\n  mstore\n  pop\n    /* \"contracts/Election.sol\":416:428  addCandidate */\n  shl(0x20, tag_5)\n    /* \"contracts/Election.sol\":416:443  addCandidate(\"Candidate 1\") */\n  0x20\n  shr\n  jump\t// in\ntag_4:\n    /* \"contracts/Election.sol\":454:481  addCandidate(\"Candidate 2\") */\n  tag_6\n  mload(0x40)\n  dup1\n  0x40\n  add\n  0x40\n  mstore\n  dup1\n  0x0b\n  dup2\n  mstore\n  0x20\n  add\n  0x43616e6469646174652032000000000000000000000000000000000000000000\n  dup2\n  mstore\n  pop\n    /* \"contracts/Election.sol\":454:466  addCandidate */\n  shl(0x20, tag_5)\n    /* \"contracts/Election.sol\":454:481  addCandidate(\"Candidate 2\") */\n  0x20\n  shr\n  jump\t// in\ntag_6:\n    /* \"contracts/Election.sol\":492:519  addCandidate(\"Candidate 3\") */\n  tag_7\n  mload(0x40)\n  dup1\n  0x40\n  add\n  0x40\n  mstore\n  dup1\n  0x0b\n  dup2\n  mstore\n  0x20\n  add\n  0x43616e6469646174652033000000000000000000000000000000000000000000\n  dup2\n  mstore\n  pop\n    /* \"contracts/Election.sol\":492:504  addCandidate */\n  shl(0x20, tag_5)\n    /* \"contracts/Election.sol\":492:519  addCandidate(\"Candidate 3\") */\n  0x20\n  shr\n  jump\t// in\ntag_7:\n    /* \"contracts/Election.sol\":530:557  addCandidate(\"Candidate 4\") */\n  tag_8\n  mload(0x40)\n  dup1\n  0x40\n  add\n  0x40\n  mstore\n  dup1\n  0x0b\n  dup2\n  mstore\n  0x20\n  add\n  0x43616e6469646174652034000000000000000000000000000000000000000000\n  dup2\n  mstore\n  pop\n    /* \"contracts/Election.sol\":530:542  addCandidate */\n  shl(0x20, tag_5)\n    /* \"contracts/Election.sol\":530:557  addCandidate(\"Candidate 4\") */\n  0x20\n  shr\n  jump\t// in\ntag_8:\n    /* \"contracts/Election.sol\":568:595  addCandidate(\"Candidate 5\") */\n  tag_9\n  mload(0x40)\n  dup1\n  0x40\n  add\n  0x40\n  mstore\n  dup1\n  0x0b\n  dup2\n  mstore\n  0x20\n  add\n  0x43616e6469646174652035000000000000000000000000000000000000000000\n  dup2\n  mstore\n  pop\n    /* \"contracts/Election.sol\":568:580  addCandidate */\n  shl(0x20, tag_5)\n    /* \"contracts/Election.sol\":568:595  addCandidate(\"Candidate 5\") */\n  0x20\n  shr\n  jump\t// in\ntag_9:\n    /* \"contracts/Election.sol\":606:633  addCandidate(\"Candidate 6\") */\n  tag_10\n  mload(0x40)\n  dup1\n  0x40\n  add\n  0x40\n  mstore\n  dup1\n  0x0b\n  dup2\n  mstore\n  0x20\n  add\n  0x43616e6469646174652036000000000000000000000000000000000000000000\n  dup2\n  mstore\n  pop\n    /* \"contracts/Election.sol\":606:618  addCandidate */\n  shl(0x20, tag_5)\n    /* \"contracts/Election.sol\":606:633  addCandidate(\"Candidate 6\") */\n  0x20\n  shr\n  jump\t// in\ntag_10:\n    /* \"contracts/Election.sol\":644:671  addCandidate(\"Candidate 7\") */\n  tag_11\n  mload(0x40)\n  dup1\n  0x40\n  add\n  0x40\n  mstore\n  dup1\n  0x0b\n  dup2\n  mstore\n  0x20\n  add\n  0x43616e6469646174652037000000000000000000000000000000000000000000\n  dup2\n  mstore\n  pop\n    /* \"contracts/Election.sol\":644:656  addCandidate */\n  shl(0x20, tag_5)\n    /* \"contracts/Election.sol\":644:671  addCandidate(\"Candidate 7\") */\n  0x20\n  shr\n  jump\t// in\ntag_11:\n    /* \"contracts/Election.sol\":682:709  addCandidate(\"Candidate 8\") */\n  tag_12\n  mload(0x40)\n  dup1\n  0x40\n  add\n  0x40\n  mstore\n  dup1\n  0x0b\n  dup2\n  mstore\n  0x20\n  add\n  0x43616e6469646174652038000000000000000000000000000000000000000000\n  dup2\n  mstore\n  pop\n    /* \"contracts/Election.sol\":682:694  addCandidate */\n  shl(0x20, tag_5)\n    /* \"contracts/Election.sol\":682:709  addCandidate(\"Candidate 8\") */\n  0x20\n  shr\n  jump\t// in\ntag_12:\n    /* \"contracts/Election.sol\":720:747  addCandidate(\"Candidate 9\") */\n  tag_13\n  mload(0x40)\n  dup1\n  0x40\n  add\n  0x40\n  mstore\n  dup1\n  0x0b\n  dup2\n  mstore\n  0x20\n  add\n  0x43616e6469646174652039000000000000000000000000000000000000000000\n  dup2\n  mstore\n  pop\n    /* \"contracts/Election.sol\":720:732  addCandidate */\n  shl(0x20, tag_5)\n    /* \"contracts/Election.sol\":720:747  addCandidate(\"Candidate 9\") */\n  0x20\n  shr\n  jump\t// in\ntag_13:\n    /* \"contracts/Election.sol\":758:786  addCandidate(\"Candidate 10\") */\n  tag_14\n  mload(0x40)\n  dup1\n  0x40\n  add\n  0x40\n  mstore\n  dup1\n  0x0c\n  dup2\n  mstore\n  0x20\n  add\n  0x43616e6469646174652031300000000000000000000000000000000000000000\n  dup2\n  mstore\n  pop\n    /* \"contracts/Election.sol\":758:770  addCandidate */\n  shl(0x20, tag_5)\n    /* \"contracts/Election.sol\":758:786  addCandidate(\"Candidate 10\") */\n  0x20\n  shr\n  jump\t// in\ntag_14:\n    /* \"contracts/Election.sol\":35:1417  contract Election {\r... */\n  jump(tag_15)\n    /* \"contracts/Election.sol\":802:968  function addCandidate (string memory _name) private {\r... */\ntag_5:\n    /* \"contracts/Election.sol\":865:880  candidatesCount */\n  0x03\n  0x00\n    /* \"contracts/Election.sol\":865:883  candidatesCount ++ */\n  dup2\n  sload\n  dup1\n  swap3\n  swap2\n  swap1\n  tag_17\n  swap1\n  tag_18\n  jump\t// in\ntag_17:\n  swap2\n  swap1\n  pop\n  sstore\n  pop\n    /* \"contracts/Election.sol\":924:960  Candidate(candidatesCount, _name, 0) */\n  mload(0x40)\n  dup1\n  0x60\n  add\n  0x40\n  mstore\n  dup1\n    /* \"contracts/Election.sol\":934:949  candidatesCount */\n  sload(0x03)\n    /* \"contracts/Election.sol\":924:960  Candidate(candidatesCount, _name, 0) */\n  dup2\n  mstore\n  0x20\n  add\n    /* \"contracts/Election.sol\":951:956  _name */\n  dup3\n    /* \"contracts/Election.sol\":924:960  Candidate(candidatesCount, _name, 0) */\n  dup2\n  mstore\n  0x20\n  add\n    /* \"contracts/Election.sol\":958:959  0 */\n  0x00\n    /* \"contracts/Election.sol\":924:960  Candidate(candidatesCount, _name, 0) */\n  dup2\n  mstore\n  pop\n    /* \"contracts/Election.sol\":894:904  candidates */\n  0x02\n    /* \"contracts/Election.sol\":894:921  candidates[candidatesCount] */\n  0x00\n    /* \"contracts/Election.sol\":905:920  candidatesCount */\n  sload(0x03)\n    /* \"contracts/Election.sol\":894:921  candidates[candidatesCount] */\n  dup2\n  mstore\n  0x20\n  add\n  swap1\n  dup2\n  mstore\n  0x20\n  add\n  0x00\n  keccak256\n    /* \"contracts/Election.sol\":894:960  candidates[candidatesCount] = Candidate(candidatesCount, _name, 0) */\n  0x00\n  dup3\n  add\n  mload\n  dup2\n  0x00\n  add\n  sstore\n  0x20\n  dup3\n  add\n  mload\n  dup2\n  0x01\n  add\n  swap1\n  dup1\n  mload\n  swap1\n  0x20\n  add\n  swap1\n  tag_19\n  swap3\n  swap2\n  swap1\n  tag_20\n  jump\t// in\ntag_19:\n  pop\n  0x40\n  dup3\n  add\n  mload\n  dup2\n  0x02\n  add\n  sstore\n  swap1\n  pop\n  pop\n    /* \"contracts/Election.sol\":802:968  function addCandidate (string memory _name) private {\r... */\n  pop\n  jump\t// out\n    /* \"contracts/Election.sol\":35:1417  contract Election {\r... */\ntag_20:\n  dup3\n  dup1\n  sload\n  tag_21\n  swap1\n  tag_22\n  jump\t// in\ntag_21:\n  swap1\n  0x00\n  mstore\n  keccak256(0x00, 0x20)\n  swap1\n  0x1f\n  add\n  0x20\n  swap1\n  div\n  dup2\n  add\n  swap3\n  dup3\n  tag_24\n  jumpi\n  0x00\n  dup6\n  sstore\n  jump(tag_23)\ntag_24:\n  dup3\n  0x1f\n  lt\n  tag_25\n  jumpi\n  dup1\n  mload\n  not(0xff)\n  and\n  dup4\n  dup1\n  add\n  or\n  dup6\n  sstore\n  jump(tag_23)\ntag_25:\n  dup3\n  dup1\n  add\n  0x01\n  add\n  dup6\n  sstore\n  dup3\n  iszero\n  tag_23\n  jumpi\n  swap2\n  dup3\n  add\ntag_26:\n  dup3\n  dup2\n  gt\n  iszero\n  tag_27\n  jumpi\n  dup3\n  mload\n  dup3\n  sstore\n  swap2\n  0x20\n  add\n  swap2\n  swap1\n  0x01\n  add\n  swap1\n  jump(tag_26)\ntag_27:\ntag_23:\n  pop\n  swap1\n  pop\n  tag_28\n  swap2\n  swap1\n  tag_29\n  jump\t// in\ntag_28:\n  pop\n  swap1\n  jump\t// out\ntag_29:\ntag_30:\n  dup1\n  dup3\n  gt\n  iszero\n  tag_31\n  jumpi\n  0x00\n  dup2\n  0x00\n  swap1\n  sstore\n  pop\n  0x01\n  add\n  jump(tag_30)\ntag_31:\n  pop\n  swap1\n  jump\t// out\n    /* \"#utility.yul\":7:84   */\ntag_33:\n    /* \"#utility.yul\":44:51   */\n  0x00\n    /* \"#utility.yul\":73:78   */\n  dup2\n    /* \"#utility.yul\":62:78   */\n  swap1\n  pop\n    /* \"#utility.yul\":7:84   */\n  swap2\n  swap1\n  pop\n  jump\t// out\n    /* \"#utility.yul\":90:410   */\ntag_22:\n    /* \"#utility.yul\":134:140   */\n  0x00\n    /* \"#utility.yul\":171:172   */\n  0x02\n    /* \"#utility.yul\":165:169   */\n  dup3\n    /* \"#utility.yul\":161:173   */\n  div\n    /* \"#utility.yul\":151:173   */\n  swap1\n  pop\n    /* \"#utility.yul\":218:219   */\n  0x01\n    /* \"#utility.yul\":212:216   */\n  dup3\n    /* \"#utility.yul\":208:220   */\n  and\n    /* \"#utility.yul\":239:257   */\n  dup1\n    /* \"#utility.yul\":229:310   */\n  tag_36\n  jumpi\n    /* \"#utility.yul\":295:299   */\n  0x7f\n    /* \"#utility.yul\":287:293   */\n  dup3\n    /* \"#utility.yul\":283:300   */\n  and\n    /* \"#utility.yul\":273:300   */\n  swap2\n  pop\n    /* \"#utility.yul\":229:310   */\ntag_36:\n    /* \"#utility.yul\":357:359   */\n  0x20\n    /* \"#utility.yul\":349:355   */\n  dup3\n    /* \"#utility.yul\":346:360   */\n  lt\n    /* \"#utility.yul\":326:344   */\n  dup2\n    /* \"#utility.yul\":323:361   */\n  eq\n    /* \"#utility.yul\":320:404   */\n  iszero\n  tag_37\n  jumpi\n    /* \"#utility.yul\":376:394   */\n  tag_38\n  tag_39\n  jump\t// in\ntag_38:\n    /* \"#utility.yul\":320:404   */\ntag_37:\n    /* \"#utility.yul\":141:410   */\n  pop\n    /* \"#utility.yul\":90:410   */\n  swap2\n  swap1\n  pop\n  jump\t// out\n    /* \"#utility.yul\":416:649   */\ntag_18:\n    /* \"#utility.yul\":455:458   */\n  0x00\n    /* \"#utility.yul\":478:502   */\n  tag_41\n    /* \"#utility.yul\":496:501   */\n  dup3\n    /* \"#utility.yul\":478:502   */\n  tag_33\n  jump\t// in\ntag_41:\n    /* \"#utility.yul\":469:502   */\n  swap2\n  pop\n    /* \"#utility.yul\":524:590   */\n  0xffffffffffffffffffffffffffffffffffffffffffffffffffffffffffffffff\n    /* \"#utility.yul\":517:522   */\n  dup3\n    /* \"#utility.yul\":514:591   */\n  eq\n    /* \"#utility.yul\":511:614   */\n  iszero\n  tag_42\n  jumpi\n    /* \"#utility.yul\":594:612   */\n  tag_43\n  tag_44\n  jump\t// in\ntag_43:\n    /* \"#utility.yul\":511:614   */\ntag_42:\n    /* \"#utility.yul\":641:642   */\n  0x01\n    /* \"#utility.yul\":634:639   */\n  dup3\n    /* \"#utility.yul\":630:643   */\n  add\n    /* \"#utility.yul\":623:643   */\n  swap1\n  pop\n    /* \"#utility.yul\":416:649   */\n  swap2\n  swap1\n  pop\n  jump\t// out\n    /* \"#utility.yul\":655:835   */\ntag_44:\n    /* \"#utility.yul\":703:780   */\n  0x4e487b7100000000000000000000000000000000000000000000000000000000\n    /* \"#utility.yul\":700:701   */\n  0x00\n    /* \"#utility.yul\":693:781   */\n  mstore\n    /* \"#utility.yul\":800:804   */\n  0x11\n    /* \"#utility.yul\":797:798   */\n  0x04\n    /* \"#utility.yul\":790:805   */\n  mstore\n    /* \"#utility.yul\":824:828   */\n  0x24\n    /* \"#utility.yul\":821:822   */\n  0x00\n    /* \"#utility.yul\":814:829   */\n  revert\n    /* \"#utility.yul\":841:1021   */\ntag_39:\n    /* \"#utility.yul\":889:966   */\n  0x4e487b7100000000000000000000000000000000000000000000000000000000\n    /* \"#utility.yul\":886:887   */\n  0x00\n    /* \"#utility.yul\":879:967   */\n  mstore\n    /* \"#utility.yul\":986:990   */\n  0x22\n    /* \"#utility.yul\":983:984   */\n  0x04\n    /* \"#utility.yul\":976:991   */\n  mstore\n    /* \"#utility.yul\":1010:1014   */\n  0x24\n    /* \"#utility.yul\":1007:1008   */\n  0x00\n    /* \"#utility.yul\":1000:1015   */\n  revert\n    /* \"contracts/Election.sol\":35:1417  contract Election {\r... */\ntag_15:\n  dataSize(sub_0)\n  dup1\n  dataOffset(sub_0)\n  0x00\n  codecopy\n  0x00\n  return\nstop\n\nsub_0: assembly {\n        /* \"contracts/Election.sol\":35:1417  contract Election {\r... */\n      mstore(0x40, 0x80)\n      callvalue\n      dup1\n      iszero\n      tag_1\n      jumpi\n      0x00\n      dup1\n      revert\n    tag_1:\n      pop\n      jumpi(tag_2, lt(calldatasize, 0x04))\n      shr(0xe0, calldataload(0x00))\n      dup1\n      0x0121b93f\n      eq\n      tag_3\n      jumpi\n      dup1\n      0x2d35a8a2\n      eq\n      tag_4\n      jumpi\n      dup1\n      0x3477ee2e\n      eq\n      tag_5\n      jumpi\n      dup1\n      0xa3ec138d\n      eq\n      tag_6\n      jumpi\n      dup1\n      0xefbe1c1c\n      eq\n      tag_7\n      jumpi\n    tag_2:\n      0x00\n      dup1\n      revert\n        /* \"contracts/Election.sol\":1041:1414  function vote (uint _candidateId) public {\r... */\n    tag_3:\n      tag_8\n      0x04\n      dup1\n      calldatasize\n      sub\n      dup2\n      add\n      swap1\n      tag_9\n      swap2\n      swap1\n      tag_10\n      jump\t// in\n    tag_9:\n      tag_11\n      jump\t// in\n    tag_8:\n      stop\n        /* \"contracts/Election.sol\":278:305  uint public candidatesCount */\n    tag_4:\n      tag_12\n      tag_13\n      jump\t// in\n    tag_12:\n      mload(0x40)\n      tag_14\n      swap2\n      swap1\n      tag_15\n      jump\t// in\n    tag_14:\n      mload(0x40)\n      dup1\n      swap2\n      sub\n      swap1\n      return\n        /* \"contracts/Election.sol\":227:271  mapping(uint => Candidate) public candidates */\n    tag_5:\n      tag_16\n      0x04\n      dup1\n      calldatasize\n      sub\n      dup2\n      add\n      swap1\n      tag_17\n      swap2\n      swap1\n      tag_10\n      jump\t// in\n    tag_17:\n      tag_18\n      jump\t// in\n    tag_16:\n      mload(0x40)\n      tag_19\n      swap4\n      swap3\n      swap2\n      swap1\n      tag_20\n      jump\t// in\n    tag_19:\n      mload(0x40)\n      dup1\n      swap2\n      sub\n      swap1\n      return\n        /* \"contracts/Election.sol\":182:220  mapping(address => bool) public voters */\n    tag_6:\n      tag_21\n      0x04\n      dup1\n      calldatasize\n      sub\n      dup2\n      add\n      swap1\n      tag_22\n      swap2\n      swap1\n      tag_23\n      jump\t// in\n    tag_22:\n      tag_24\n      jump\t// in\n    tag_21:\n      mload(0x40)\n      tag_25\n      swap2\n      swap1\n      tag_26\n      jump\t// in\n    tag_25:\n      mload(0x40)\n      dup1\n      swap2\n      sub\n      swap1\n      return\n        /* \"contracts/Election.sol\":976:1033  function end () public {\r... */\n    tag_7:\n      tag_27\n      tag_28\n      jump\t// in\n    tag_27:\n      stop\n        /* \"contracts/Election.sol\":1041:1414  function vote (uint _candidateId) public {\r... */\n    tag_11:\n        /* \"contracts/Election.sol\":1102:1108  voters */\n      0x01\n        /* \"contracts/Election.sol\":1102:1120  voters[msg.sender] */\n      0x00\n        /* \"contracts/Election.sol\":1109:1119  msg.sender */\n      caller\n        /* \"contracts/Election.sol\":1102:1120  voters[msg.sender] */\n      0xffffffffffffffffffffffffffffffffffffffff\n      and\n      0xffffffffffffffffffffffffffffffffffffffff\n      and\n      dup2\n      mstore\n      0x20\n      add\n      swap1\n      dup2\n      mstore\n      0x20\n      add\n      0x00\n      keccak256\n      0x00\n      swap1\n      sload\n      swap1\n      0x0100\n      exp\n      swap1\n      div\n      0xff\n      and\n        /* \"contracts/Election.sol\":1101:1120  !voters[msg.sender] */\n      iszero\n        /* \"contracts/Election.sol\":1093:1137  require(!voters[msg.sender],\"Already voted\") */\n      tag_30\n      jumpi\n      mload(0x40)\n      0x08c379a000000000000000000000000000000000000000000000000000000000\n      dup2\n      mstore\n      0x04\n      add\n      tag_31\n      swap1\n      tag_32\n      jump\t// in\n    tag_31:\n      mload(0x40)\n      dup1\n      swap2\n      sub\n      swap1\n      revert\n    tag_30:\n        /* \"contracts/Election.sol\":1173:1174  0 */\n      0x00\n        /* \"contracts/Election.sol\":1158:1170  _candidateId */\n      dup2\n        /* \"contracts/Election.sol\":1158:1174  _candidateId > 0 */\n      gt\n        /* \"contracts/Election.sol\":1158:1209  _candidateId > 0 && _candidateId <= candidatesCount */\n      dup1\n      iszero\n      tag_33\n      jumpi\n      pop\n        /* \"contracts/Election.sol\":1194:1209  candidatesCount */\n      sload(0x03)\n        /* \"contracts/Election.sol\":1178:1190  _candidateId */\n      dup2\n        /* \"contracts/Election.sol\":1178:1209  _candidateId <= candidatesCount */\n      gt\n      iszero\n        /* \"contracts/Election.sol\":1158:1209  _candidateId > 0 && _candidateId <= candidatesCount */\n    tag_33:\n        /* \"contracts/Election.sol\":1150:1230  require(_candidateId > 0 && _candidateId <= candidatesCount,\"Invalid candidate\") */\n      tag_34\n      jumpi\n      mload(0x40)\n      0x08c379a000000000000000000000000000000000000000000000000000000000\n      dup2\n      mstore\n      0x04\n      add\n      tag_35\n      swap1\n      tag_36\n      jump\t// in\n    tag_35:\n      mload(0x40)\n      dup1\n      swap2\n      sub\n      swap1\n      revert\n    tag_34:\n        /* \"contracts/Election.sol\":1251:1258  goingon */\n      0x00\n      dup1\n      sload\n      swap1\n      0x0100\n      exp\n      swap1\n      div\n      0xff\n      and\n        /* \"contracts/Election.sol\":1243:1276  require(goingon,\"Election ended\") */\n      tag_37\n      jumpi\n      mload(0x40)\n      0x08c379a000000000000000000000000000000000000000000000000000000000\n      dup2\n      mstore\n      0x04\n      add\n      tag_38\n      swap1\n      tag_39\n      jump\t// in\n    tag_38:\n      mload(0x40)\n      dup1\n      swap2\n      sub\n      swap1\n      revert\n    tag_37:\n        /* \"contracts/Election.sol\":1310:1314  true */\n      0x01\n        /* \"contracts/Election.sol\":1289:1295  voters */\n      dup1\n        /* \"contracts/Election.sol\":1289:1307  voters[msg.sender] */\n      0x00\n        /* \"contracts/Election.sol\":1296:1306  msg.sender */\n      caller\n        /* \"contracts/Election.sol\":1289:1307  voters[msg.sender] */\n      0xffffffffffffffffffffffffffffffffffffffff\n      and\n      0xffffffffffffffffffffffffffffffffffffffff\n      and\n      dup2\n      mstore\n      0x20\n      add\n      swap1\n      dup2\n      mstore\n      0x20\n      add\n      0x00\n      keccak256\n      0x00\n        /* \"contracts/Election.sol\":1289:1314  voters[msg.sender] = true */\n      0x0100\n      exp\n      dup2\n      sload\n      dup2\n      0xff\n      mul\n      not\n      and\n      swap1\n      dup4\n      iszero\n      iszero\n      mul\n      or\n      swap1\n      sstore\n      pop\n        /* \"contracts/Election.sol\":1327:1337  candidates */\n      0x02\n        /* \"contracts/Election.sol\":1327:1351  candidates[_candidateId] */\n      0x00\n        /* \"contracts/Election.sol\":1338:1350  _candidateId */\n      dup3\n        /* \"contracts/Election.sol\":1327:1351  candidates[_candidateId] */\n      dup2\n      mstore\n      0x20\n      add\n      swap1\n      dup2\n      mstore\n      0x20\n      add\n      0x00\n      keccak256\n        /* \"contracts/Election.sol\":1327:1361  candidates[_candidateId].voteCount */\n      0x02\n      add\n      0x00\n        /* \"contracts/Election.sol\":1327:1364  candidates[_candidateId].voteCount ++ */\n      dup2\n      sload\n      dup1\n      swap3\n      swap2\n      swap1\n      tag_40\n      swap1\n      tag_41\n      jump\t// in\n    tag_40:\n      swap2\n      swap1\n      pop\n      sstore\n      pop\n        /* \"contracts/Election.sol\":1393:1405  _candidateId */\n      dup1\n        /* \"contracts/Election.sol\":1382:1406  votedEvent(_candidateId) */\n      0xfff3c900d938d21d0990d786e819f29b8d05c1ef587b462b939609625b684b16\n      mload(0x40)\n      mload(0x40)\n      dup1\n      swap2\n      sub\n      swap1\n      log2\n        /* \"contracts/Election.sol\":1041:1414  function vote (uint _candidateId) public {\r... */\n      pop\n      jump\t// out\n        /* \"contracts/Election.sol\":278:305  uint public candidatesCount */\n    tag_13:\n      sload(0x03)\n      dup2\n      jump\t// out\n        /* \"contracts/Election.sol\":227:271  mapping(uint => Candidate) public candidates */\n    tag_18:\n      mstore(0x20, 0x02)\n      dup1\n      0x00\n      mstore\n      keccak256(0x00, 0x40)\n      0x00\n      swap2\n      pop\n      swap1\n      pop\n      dup1\n      0x00\n      add\n      sload\n      swap1\n      dup1\n      0x01\n      add\n      dup1\n      sload\n      tag_42\n      swap1\n      tag_43\n      jump\t// in\n    tag_42:\n      dup1\n      0x1f\n      add\n      0x20\n      dup1\n      swap2\n      div\n      mul\n      0x20\n      add\n      mload(0x40)\n      swap1\n      dup2\n      add\n      0x40\n      mstore\n      dup1\n      swap3\n      swap2\n      swap1\n      dup2\n      dup2\n      mstore\n      0x20\n      add\n      dup3\n      dup1\n      sload\n      tag_44\n      swap1\n      tag_43\n      jump\t// in\n    tag_44:\n      dup1\n      iszero\n      tag_45\n      jumpi\n      dup1\n      0x1f\n      lt\n      tag_46\n      jumpi\n      0x0100\n      dup1\n      dup4\n      sload\n      div\n      mul\n      dup4\n      mstore\n      swap2\n      0x20\n      add\n      swap2\n      jump(tag_45)\n    tag_46:\n      dup3\n      add\n      swap2\n      swap1\n      0x00\n      mstore\n      keccak256(0x00, 0x20)\n      swap1\n    tag_47:\n      dup2\n      sload\n      dup2\n      mstore\n      swap1\n      0x01\n      add\n      swap1\n      0x20\n      add\n      dup1\n      dup4\n      gt\n      tag_47\n      jumpi\n      dup3\n      swap1\n      sub\n      0x1f\n      and\n      dup3\n      add\n      swap2\n    tag_45:\n      pop\n      pop\n      pop\n      pop\n      pop\n      swap1\n      dup1\n      0x02\n      add\n      sload\n      swap1\n      pop\n      dup4\n      jump\t// out\n        /* \"contracts/Election.sol\":182:220  mapping(address => bool) public voters */\n    tag_24:\n      mstore(0x20, 0x01)\n      dup1\n      0x00\n      mstore\n      keccak256(0x00, 0x40)\n      0x00\n      swap2\n      pop\n      sload\n      swap1\n      0x0100\n      exp\n      swap1\n      div\n      0xff\n      and\n      dup2\n      jump\t// out\n        /* \"contracts/Election.sol\":976:1033  function end () public {\r... */\n    tag_28:\n        /* \"contracts/Election.sol\":1020:1025  false */\n      0x00\n        /* \"contracts/Election.sol\":1010:1017  goingon */\n      dup1\n      0x00\n        /* \"contracts/Election.sol\":1010:1025  goingon = false */\n      0x0100\n      exp\n      dup2\n      sload\n      dup2\n      0xff\n      mul\n      not\n      and\n      swap1\n      dup4\n      iszero\n      iszero\n      mul\n      or\n      swap1\n      sstore\n      pop\n        /* \"contracts/Election.sol\":976:1033  function end () public {\r... */\n      jump\t// out\n        /* \"#utility.yul\":7:146   */\n    tag_50:\n        /* \"#utility.yul\":53:58   */\n      0x00\n        /* \"#utility.yul\":91:97   */\n      dup2\n        /* \"#utility.yul\":78:98   */\n      calldataload\n        /* \"#utility.yul\":69:98   */\n      swap1\n      pop\n        /* \"#utility.yul\":107:140   */\n      tag_52\n        /* \"#utility.yul\":134:139   */\n      dup2\n        /* \"#utility.yul\":107:140   */\n      tag_53\n      jump\t// in\n    tag_52:\n        /* \"#utility.yul\":7:146   */\n      swap3\n      swap2\n      pop\n      pop\n      jump\t// out\n        /* \"#utility.yul\":152:291   */\n    tag_54:\n        /* \"#utility.yul\":198:203   */\n      0x00\n        /* \"#utility.yul\":236:242   */\n      dup2\n        /* \"#utility.yul\":223:243   */\n      calldataload\n        /* \"#utility.yul\":214:243   */\n      swap1\n      pop\n        /* \"#utility.yul\":252:285   */\n      tag_56\n        /* \"#utility.yul\":279:284   */\n      dup2\n        /* \"#utility.yul\":252:285   */\n      tag_57\n      jump\t// in\n    tag_56:\n        /* \"#utility.yul\":152:291   */\n      swap3\n      swap2\n      pop\n      pop\n      jump\t// out\n        /* \"#utility.yul\":297:626   */\n    tag_23:\n        /* \"#utility.yul\":356:362   */\n      0x00\n        /* \"#utility.yul\":405:407   */\n      0x20\n        /* \"#utility.yul\":393:402   */\n      dup3\n        /* \"#utility.yul\":384:391   */\n      dup5\n        /* \"#utility.yul\":380:403   */\n      sub\n        /* \"#utility.yul\":376:408   */\n      slt\n        /* \"#utility.yul\":373:492   */\n      iszero\n      tag_59\n      jumpi\n        /* \"#utility.yul\":411:490   */\n      tag_60\n      tag_61\n      jump\t// in\n    tag_60:\n        /* \"#utility.yul\":373:492   */\n    tag_59:\n        /* \"#utility.yul\":531:532   */\n      0x00\n        /* \"#utility.yul\":556:609   */\n      tag_62\n        /* \"#utility.yul\":601:608   */\n      dup5\n        /* \"#utility.yul\":592:598   */\n      dup3\n        /* \"#utility.yul\":581:590   */\n      dup6\n        /* \"#utility.yul\":577:599   */\n      add\n        /* \"#utility.yul\":556:609   */\n      tag_50\n      jump\t// in\n    tag_62:\n        /* \"#utility.yul\":546:609   */\n      swap2\n      pop\n        /* \"#utility.yul\":502:619   */\n      pop\n        /* \"#utility.yul\":297:626   */\n      swap3\n      swap2\n      pop\n      pop\n      jump\t// out\n        /* \"#utility.yul\":632:961   */\n    tag_10:\n        /* \"#utility.yul\":691:697   */\n      0x00\n        /* \"#utility.yul\":740:742   */\n      0x20\n        /* \"#utility.yul\":728:737   */\n      dup3\n        /* \"#utility.yul\":719:726   */\n      dup5\n        /* \"#utility.yul\":715:738   */\n      sub\n        /* \"#utility.yul\":711:743   */\n      slt\n        /* \"#utility.yul\":708:827   */\n      iszero\n      tag_64\n      jumpi\n        /* \"#utility.yul\":746:825   */\n      tag_65\n      tag_61\n      jump\t// in\n    tag_65:\n        /* \"#utility.yul\":708:827   */\n    tag_64:\n        /* \"#utility.yul\":866:867   */\n      0x00\n        /* \"#utility.yul\":891:944   */\n      tag_66\n        /* \"#utility.yul\":936:943   */\n      dup5\n        /* \"#utility.yul\":927:933   */\n      dup3\n        /* \"#utility.yul\":916:925   */\n      dup6\n        /* \"#utility.yul\":912:934   */\n      add\n        /* \"#utility.yul\":891:944   */\n      tag_54\n      jump\t// in\n    tag_66:\n        /* \"#utility.yul\":881:944   */\n      swap2\n      pop\n        /* \"#utility.yul\":837:954   */\n      pop\n        /* \"#utility.yul\":632:961   */\n      swap3\n      swap2\n      pop\n      pop\n      jump\t// out\n        /* \"#utility.yul\":967:1076   */\n    tag_67:\n        /* \"#utility.yul\":1048:1069   */\n      tag_69\n        /* \"#utility.yul\":1063:1068   */\n      dup2\n        /* \"#utility.yul\":1048:1069   */\n      tag_70\n      jump\t// in\n    tag_69:\n        /* \"#utility.yul\":1043:1046   */\n      dup3\n        /* \"#utility.yul\":1036:1070   */\n      mstore\n        /* \"#utility.yul\":967:1076   */\n      pop\n      pop\n      jump\t// out\n        /* \"#utility.yul\":1082:1446   */\n    tag_71:\n        /* \"#utility.yul\":1170:1173   */\n      0x00\n        /* \"#utility.yul\":1198:1237   */\n      tag_73\n        /* \"#utility.yul\":1231:1236   */\n      dup3\n        /* \"#utility.yul\":1198:1237   */\n      tag_74\n      jump\t// in\n    tag_73:\n        /* \"#utility.yul\":1253:1324   */\n      tag_75\n        /* \"#utility.yul\":1317:1323   */\n      dup2\n        /* \"#utility.yul\":1312:1315   */\n      dup6\n        /* \"#utility.yul\":1253:1324   */\n      tag_76\n      jump\t// in\n    tag_75:\n        /* \"#utility.yul\":1246:1324   */\n      swap4\n      pop\n        /* \"#utility.yul\":1333:1385   */\n      tag_77\n        /* \"#utility.yul\":1378:1384   */\n      dup2\n        /* \"#utility.yul\":1373:1376   */\n      dup6\n        /* \"#utility.yul\":1366:1370   */\n      0x20\n        /* \"#utility.yul\":1359:1364   */\n      dup7\n        /* \"#utility.yul\":1355:1371   */\n      add\n        /* \"#utility.yul\":1333:1385   */\n      tag_78\n      jump\t// in\n    tag_77:\n        /* \"#utility.yul\":1410:1439   */\n      tag_79\n        /* \"#utility.yul\":1432:1438   */\n      dup2\n        /* \"#utility.yul\":1410:1439   */\n      tag_80\n      jump\t// in\n    tag_79:\n        /* \"#utility.yul\":1405:1408   */\n      dup5\n        /* \"#utility.yul\":1401:1440   */\n      add\n        /* \"#utility.yul\":1394:1440   */\n      swap2\n      pop\n        /* \"#utility.yul\":1174:1446   */\n      pop\n        /* \"#utility.yul\":1082:1446   */\n      swap3\n      swap2\n      pop\n      pop\n      jump\t// out\n        /* \"#utility.yul\":1452:1818   */\n    tag_81:\n        /* \"#utility.yul\":1594:1597   */\n      0x00\n        /* \"#utility.yul\":1615:1682   */\n      tag_83\n        /* \"#utility.yul\":1679:1681   */\n      0x0d\n        /* \"#utility.yul\":1674:1677   */\n      dup4\n        /* \"#utility.yul\":1615:1682   */\n      tag_76\n      jump\t// in\n    tag_83:\n        /* \"#utility.yul\":1608:1682   */\n      swap2\n      pop\n        /* \"#utility.yul\":1691:1784   */\n      tag_84\n        /* \"#utility.yul\":1780:1783   */\n      dup3\n        /* \"#utility.yul\":1691:1784   */\n      tag_85\n      jump\t// in\n    tag_84:\n        /* \"#utility.yul\":1809:1811   */\n      0x20\n        /* \"#utility.yul\":1804:1807   */\n      dup3\n        /* \"#utility.yul\":1800:1812   */\n      add\n        /* \"#utility.yul\":1793:1812   */\n      swap1\n      pop\n        /* \"#utility.yul\":1452:1818   */\n      swap2\n      swap1\n      pop\n      jump\t// out\n        /* \"#utility.yul\":1824:2190   */\n    tag_86:\n        /* \"#utility.yul\":1966:1969   */\n      0x00\n        /* \"#utility.yul\":1987:2054   */\n      tag_88\n        /* \"#utility.yul\":2051:2053   */\n      0x11\n        /* \"#utility.yul\":2046:2049   */\n      dup4\n        /* \"#utility.yul\":1987:2054   */\n      tag_76\n      jump\t// in\n    tag_88:\n        /* \"#utility.yul\":1980:2054   */\n      swap2\n      pop\n        /* \"#utility.yul\":2063:2156   */\n      tag_89\n        /* \"#utility.yul\":2152:2155   */\n      dup3\n        /* \"#utility.yul\":2063:2156   */\n      tag_90\n      jump\t// in\n    tag_89:\n        /* \"#utility.yul\":2181:2183   */\n      0x20\n        /* \"#utility.yul\":2176:2179   */\n      dup3\n        /* \"#utility.yul\":2172:2184   */\n      add\n        /* \"#utility.yul\":2165:2184   */\n      swap1\n      pop\n        /* \"#utility.yul\":1824:2190   */\n      swap2\n      swap1\n      pop\n      jump\t// out\n        /* \"#utility.yul\":2196:2562   */\n    tag_91:\n        /* \"#utility.yul\":2338:2341   */\n      0x00\n        /* \"#utility.yul\":2359:2426   */\n      tag_93\n        /* \"#utility.yul\":2423:2425   */\n      0x0e\n        /* \"#utility.yul\":2418:2421   */\n      dup4\n        /* \"#utility.yul\":2359:2426   */\n      tag_76\n      jump\t// in\n    tag_93:\n        /* \"#utility.yul\":2352:2426   */\n      swap2\n      pop\n        /* \"#utility.yul\":2435:2528   */\n      tag_94\n        /* \"#utility.yul\":2524:2527   */\n      dup3\n        /* \"#utility.yul\":2435:2528   */\n      tag_95\n      jump\t// in\n    tag_94:\n        /* \"#utility.yul\":2553:2555   */\n      0x20\n        /* \"#utility.yul\":2548:2551   */\n      dup3\n        /* \"#utility.yul\":2544:2556   */\n      add\n        /* \"#utility.yul\":2537:2556   */\n      swap1\n      pop\n        /* \"#utility.yul\":2196:2562   */\n      swap2\n      swap1\n      pop\n      jump\t// out\n        /* \"#utility.yul\":2568:2686   */\n    tag_96:\n        /* \"#utility.yul\":2655:2679   */\n      tag_98\n        /* \"#utility.yul\":2673:2678   */\n      dup2\n        /* \"#utility.yul\":2655:2679   */\n      tag_99\n      jump\t// in\n    tag_98:\n        /* \"#utility.yul\":2650:2653   */\n      dup3\n        /* \"#utility.yul\":2643:2680   */\n      mstore\n        /* \"#utility.yul\":2568:2686   */\n      pop\n      pop\n      jump\t// out\n        /* \"#utility.yul\":2692:2902   */\n    tag_26:\n        /* \"#utility.yul\":2779:2783   */\n      0x00\n        /* \"#utility.yul\":2817:2819   */\n      0x20\n        /* \"#utility.yul\":2806:2815   */\n      dup3\n        /* \"#utility.yul\":2802:2820   */\n      add\n        /* \"#utility.yul\":2794:2820   */\n      swap1\n      pop\n        /* \"#utility.yul\":2830:2895   */\n      tag_101\n        /* \"#utility.yul\":2892:2893   */\n      0x00\n        /* \"#utility.yul\":2881:2890   */\n      dup4\n        /* \"#utility.yul\":2877:2894   */\n      add\n        /* \"#utility.yul\":2868:2874   */\n      dup5\n        /* \"#utility.yul\":2830:2895   */\n      tag_67\n      jump\t// in\n    tag_101:\n        /* \"#utility.yul\":2692:2902   */\n      swap3\n      swap2\n      pop\n      pop\n      jump\t// out\n        /* \"#utility.yul\":2908:3327   */\n    tag_32:\n        /* \"#utility.yul\":3074:3078   */\n      0x00\n        /* \"#utility.yul\":3112:3114   */\n      0x20\n        /* \"#utility.yul\":3101:3110   */\n      dup3\n        /* \"#utility.yul\":3097:3115   */\n      add\n        /* \"#utility.yul\":3089:3115   */\n      swap1\n      pop\n        /* \"#utility.yul\":3161:3170   */\n      dup2\n        /* \"#utility.yul\":3155:3159   */\n      dup2\n        /* \"#utility.yul\":3151:3171   */\n      sub\n        /* \"#utility.yul\":3147:3148   */\n      0x00\n        /* \"#utility.yul\":3136:3145   */\n      dup4\n        /* \"#utility.yul\":3132:3149   */\n      add\n        /* \"#utility.yul\":3125:3172   */\n      mstore\n        /* \"#utility.yul\":3189:3320   */\n      tag_103\n        /* \"#utility.yul\":3315:3319   */\n      dup2\n        /* \"#utility.yul\":3189:3320   */\n      tag_81\n      jump\t// in\n    tag_103:\n        /* \"#utility.yul\":3181:3320   */\n      swap1\n      pop\n        /* \"#utility.yul\":2908:3327   */\n      swap2\n      swap1\n      pop\n      jump\t// out\n        /* \"#utility.yul\":3333:3752   */\n    tag_36:\n        /* \"#utility.yul\":3499:3503   */\n      0x00\n        /* \"#utility.yul\":3537:3539   */\n      0x20\n        /* \"#utility.yul\":3526:3535   */\n      dup3\n        /* \"#utility.yul\":3522:3540   */\n      add\n        /* \"#utility.yul\":3514:3540   */\n      swap1\n      pop\n        /* \"#utility.yul\":3586:3595   */\n      dup2\n        /* \"#utility.yul\":3580:3584   */\n      dup2\n        /* \"#utility.yul\":3576:3596   */\n      sub\n        /* \"#utility.yul\":3572:3573   */\n      0x00\n        /* \"#utility.yul\":3561:3570   */\n      dup4\n        /* \"#utility.yul\":3557:3574   */\n      add\n        /* \"#utility.yul\":3550:3597   */\n      mstore\n        /* \"#utility.yul\":3614:3745   */\n      tag_105\n        /* \"#utility.yul\":3740:3744   */\n      dup2\n        /* \"#utility.yul\":3614:3745   */\n      tag_86\n      jump\t// in\n    tag_105:\n        /* \"#utility.yul\":3606:3745   */\n      swap1\n      pop\n        /* \"#utility.yul\":3333:3752   */\n      swap2\n      swap1\n      pop\n      jump\t// out\n        /* \"#utility.yul\":3758:4177   */\n    tag_39:\n        /* \"#utility.yul\":3924:3928   */\n      0x00\n        /* \"#utility.yul\":3962:3964   */\n      0x20\n        /* \"#utility.yul\":3951:3960   */\n      dup3\n        /* \"#utility.yul\":3947:3965   */\n      add\n        /* \"#utility.yul\":3939:3965   */\n      swap1\n      pop\n        /* \"#utility.yul\":4011:4020   */\n      dup2\n        /* \"#utility.yul\":4005:4009   */\n      dup2\n        /* \"#utility.yul\":4001:4021   */\n      sub\n        /* \"#utility.yul\":3997:3998   */\n      0x00\n        /* \"#utility.yul\":3986:3995   */\n      dup4\n        /* \"#utility.yul\":3982:3999   */\n      add\n        /* \"#utility.yul\":3975:4022   */\n      mstore\n        /* \"#utility.yul\":4039:4170   */\n      tag_107\n        /* \"#utility.yul\":4165:4169   */\n      dup2\n        /* \"#utility.yul\":4039:4170   */\n      tag_91\n      jump\t// in\n    tag_107:\n        /* \"#utility.yul\":4031:4170   */\n      swap1\n      pop\n        /* \"#utility.yul\":3758:4177   */\n      swap2\n      swap1\n      pop\n      jump\t// out\n        /* \"#utility.yul\":4183:4405   */\n    tag_15:\n        /* \"#utility.yul\":4276:4280   */\n      0x00\n        /* \"#utility.yul\":4314:4316   */\n      0x20\n        /* \"#utility.yul\":4303:4312   */\n      dup3\n        /* \"#utility.yul\":4299:4317   */\n      add\n        /* \"#utility.yul\":4291:4317   */\n      swap1\n      pop\n        /* \"#utility.yul\":4327:4398   */\n      tag_109\n        /* \"#utility.yul\":4395:4396   */\n      0x00\n        /* \"#utility.yul\":4384:4393   */\n      dup4\n        /* \"#utility.yul\":4380:4397   */\n      add\n        /* \"#utility.yul\":4371:4377   */\n      dup5\n        /* \"#utility.yul\":4327:4398   */\n      tag_96\n      jump\t// in\n    tag_109:\n        /* \"#utility.yul\":4183:4405   */\n      swap3\n      swap2\n      pop\n      pop\n      jump\t// out\n        /* \"#utility.yul\":4411:4944   */\n    tag_20:\n        /* \"#utility.yul\":4580:4584   */\n      0x00\n        /* \"#utility.yul\":4618:4620   */\n      0x60\n        /* \"#utility.yul\":4607:4616   */\n      dup3\n        /* \"#utility.yul\":4603:4621   */\n      add\n        /* \"#utility.yul\":4595:4621   */\n      swap1\n      pop\n        /* \"#utility.yul\":4631:4702   */\n      tag_111\n        /* \"#utility.yul\":4699:4700   */\n      0x00\n        /* \"#utility.yul\":4688:4697   */\n      dup4\n        /* \"#utility.yul\":4684:4701   */\n      add\n        /* \"#utility.yul\":4675:4681   */\n      dup7\n        /* \"#utility.yul\":4631:4702   */\n      tag_96\n      jump\t// in\n    tag_111:\n        /* \"#utility.yul\":4749:4758   */\n      dup2\n        /* \"#utility.yul\":4743:4747   */\n      dup2\n        /* \"#utility.yul\":4739:4759   */\n      sub\n        /* \"#utility.yul\":4734:4736   */\n      0x20\n        /* \"#utility.yul\":4723:4732   */\n      dup4\n        /* \"#utility.yul\":4719:4737   */\n      add\n        /* \"#utility.yul\":4712:4760   */\n      mstore\n        /* \"#utility.yul\":4777:4855   */\n      tag_112\n        /* \"#utility.yul\":4850:4854   */\n      dup2\n        /* \"#utility.yul\":4841:4847   */\n      dup6\n        /* \"#utility.yul\":4777:4855   */\n      tag_71\n      jump\t// in\n    tag_112:\n        /* \"#utility.yul\":4769:4855   */\n      swap1\n      pop\n        /* \"#utility.yul\":4865:4937   */\n      tag_113\n        /* \"#utility.yul\":4933:4935   */\n      0x40\n        /* \"#utility.yul\":4922:4931   */\n      dup4\n        /* \"#utility.yul\":4918:4936   */\n      add\n        /* \"#utility.yul\":4909:4915   */\n      dup5\n        /* \"#utility.yul\":4865:4937   */\n      tag_96\n      jump\t// in\n    tag_113:\n        /* \"#utility.yul\":4411:4944   */\n      swap5\n      swap4\n      pop\n      pop\n      pop\n      pop\n      jump\t// out\n        /* \"#utility.yul\":5031:5130   */\n    tag_74:\n        /* \"#utility.yul\":5083:5089   */\n      0x00\n        /* \"#utility.yul\":5117:5122   */\n      dup2\n        /* \"#utility.yul\":5111:5123   */\n      mload\n        /* \"#utility.yul\":5101:5123   */\n      swap1\n      pop\n        /* \"#utility.yul\":5031:5130   */\n      swap2\n      swap1\n      pop\n      jump\t// out\n        /* \"#utility.yul\":5136:5305   */\n    tag_76:\n        /* \"#utility.yul\":5220:5231   */\n      0x00\n        /* \"#utility.yul\":5254:5260   */\n      dup3\n        /* \"#utility.yul\":5249:5252   */\n      dup3\n        /* \"#utility.yul\":5242:5261   */\n      mstore\n        /* \"#utility.yul\":5294:5298   */\n      0x20\n        /* \"#utility.yul\":5289:5292   */\n      dup3\n        /* \"#utility.yul\":5285:5299   */\n      add\n        /* \"#utility.yul\":5270:5299   */\n      swap1\n      pop\n        /* \"#utility.yul\":5136:5305   */\n      swap3\n      swap2\n      pop\n      pop\n      jump\t// out\n        /* \"#utility.yul\":5311:5407   */\n    tag_118:\n        /* \"#utility.yul\":5348:5355   */\n      0x00\n        /* \"#utility.yul\":5377:5401   */\n      tag_120\n        /* \"#utility.yul\":5395:5400   */\n      dup3\n        /* \"#utility.yul\":5377:5401   */\n      tag_121\n      jump\t// in\n    tag_120:\n        /* \"#utility.yul\":5366:5401   */\n      swap1\n      pop\n        /* \"#utility.yul\":5311:5407   */\n      swap2\n      swap1\n      pop\n      jump\t// out\n        /* \"#utility.yul\":5413:5503   */\n    tag_70:\n        /* \"#utility.yul\":5447:5454   */\n      0x00\n        /* \"#utility.yul\":5490:5495   */\n      dup2\n        /* \"#utility.yul\":5483:5496   */\n      iszero\n        /* \"#utility.yul\":5476:5497   */\n      iszero\n        /* \"#utility.yul\":5465:5497   */\n      swap1\n      pop\n        /* \"#utility.yul\":5413:5503   */\n      swap2\n      swap1\n      pop\n      jump\t// out\n        /* \"#utility.yul\":5509:5635   */\n    tag_121:\n        /* \"#utility.yul\":5546:5553   */\n      0x00\n        /* \"#utility.yul\":5586:5628   */\n      0xffffffffffffffffffffffffffffffffffffffff\n        /* \"#utility.yul\":5579:5584   */\n      dup3\n        /* \"#utility.yul\":5575:5629   */\n      and\n        /* \"#utility.yul\":5564:5629   */\n      swap1\n      pop\n        /* \"#utility.yul\":5509:5635   */\n      swap2\n      swap1\n      pop\n      jump\t// out\n        /* \"#utility.yul\":5641:5718   */\n    tag_99:\n        /* \"#utility.yul\":5678:5685   */\n      0x00\n        /* \"#utility.yul\":5707:5712   */\n      dup2\n        /* \"#utility.yul\":5696:5712   */\n      swap1\n      pop\n        /* \"#utility.yul\":5641:5718   */\n      swap2\n      swap1\n      pop\n      jump\t// out\n        /* \"#utility.yul\":5724:6031   */\n    tag_78:\n        /* \"#utility.yul\":5792:5793   */\n      0x00\n        /* \"#utility.yul\":5802:5915   */\n    tag_126:\n        /* \"#utility.yul\":5816:5822   */\n      dup4\n        /* \"#utility.yul\":5813:5814   */\n      dup2\n        /* \"#utility.yul\":5810:5823   */\n      lt\n        /* \"#utility.yul\":5802:5915   */\n      iszero\n      tag_128\n      jumpi\n        /* \"#utility.yul\":5901:5902   */\n      dup1\n        /* \"#utility.yul\":5896:5899   */\n      dup3\n        /* \"#utility.yul\":5892:5903   */\n      add\n        /* \"#utility.yul\":5886:5904   */\n      mload\n        /* \"#utility.yul\":5882:5883   */\n      dup2\n        /* \"#utility.yul\":5877:5880   */\n      dup5\n        /* \"#utility.yul\":5873:5884   */\n      add\n        /* \"#utility.yul\":5866:5905   */\n      mstore\n        /* \"#utility.yul\":5838:5840   */\n      0x20\n        /* \"#utility.yul\":5835:5836   */\n      dup2\n        /* \"#utility.yul\":5831:5841   */\n      add\n        /* \"#utility.yul\":5826:5841   */\n      swap1\n      pop\n        /* \"#utility.yul\":5802:5915   */\n      jump(tag_126)\n    tag_128:\n        /* \"#utility.yul\":5933:5939   */\n      dup4\n        /* \"#utility.yul\":5930:5931   */\n      dup2\n        /* \"#utility.yul\":5927:5940   */\n      gt\n        /* \"#utility.yul\":5924:6025   */\n      iszero\n      tag_129\n      jumpi\n        /* \"#utility.yul\":6013:6014   */\n      0x00\n        /* \"#utility.yul\":6004:6010   */\n      dup5\n        /* \"#utility.yul\":5999:6002   */\n      dup5\n        /* \"#utility.yul\":5995:6011   */\n      add\n        /* \"#utility.yul\":5988:6015   */\n      mstore\n        /* \"#utility.yul\":5924:6025   */\n    tag_129:\n        /* \"#utility.yul\":5773:6031   */\n      pop\n        /* \"#utility.yul\":5724:6031   */\n      pop\n      pop\n      pop\n      jump\t// out\n        /* \"#utility.yul\":6037:6357   */\n    tag_43:\n        /* \"#utility.yul\":6081:6087   */\n      0x00\n        /* \"#utility.yul\":6118:6119   */\n      0x02\n        /* \"#utility.yul\":6112:6116   */\n      dup3\n        /* \"#utility.yul\":6108:6120   */\n      div\n        /* \"#utility.yul\":6098:6120   */\n      swap1\n      pop\n        /* \"#utility.yul\":6165:6166   */\n      0x01\n        /* \"#utility.yul\":6159:6163   */\n      dup3\n        /* \"#utility.yul\":6155:6167   */\n      and\n        /* \"#utility.yul\":6186:6204   */\n      dup1\n        /* \"#utility.yul\":6176:6257   */\n      tag_131\n      jumpi\n        /* \"#utility.yul\":6242:6246   */\n      0x7f\n        /* \"#utility.yul\":6234:6240   */\n      dup3\n        /* \"#utility.yul\":6230:6247   */\n      and\n        /* \"#utility.yul\":6220:6247   */\n      swap2\n      pop\n        /* \"#utility.yul\":6176:6257   */\n    tag_131:\n        /* \"#utility.yul\":6304:6306   */\n      0x20\n        /* \"#utility.yul\":6296:6302   */\n      dup3\n        /* \"#utility.yul\":6293:6307   */\n      lt\n        /* \"#utility.yul\":6273:6291   */\n      dup2\n        /* \"#utility.yul\":6270:6308   */\n      eq\n        /* \"#utility.yul\":6267:6351   */\n      iszero\n      tag_132\n      jumpi\n        /* \"#utility.yul\":6323:6341   */\n      tag_133\n      tag_134\n      jump\t// in\n    tag_133:\n        /* \"#utility.yul\":6267:6351   */\n    tag_132:\n        /* \"#utility.yul\":6088:6357   */\n      pop\n        /* \"#utility.yul\":6037:6357   */\n      swap2\n      swap1\n      pop\n      jump\t// out\n        /* \"#utility.yul\":6363:6596   */\n    tag_41:\n        /* \"#utility.yul\":6402:6405   */\n      0x00\n        /* \"#utility.yul\":6425:6449   */\n      tag_136\n        /* \"#utility.yul\":6443:6448   */\n      dup3\n        /* \"#utility.yul\":6425:6449   */\n      tag_99\n      jump\t// in\n    tag_136:\n        /* \"#utility.yul\":6416:6449   */\n      swap2\n      pop\n        /* \"#utility.yul\":6471:6537   */\n      0xffffffffffffffffffffffffffffffffffffffffffffffffffffffffffffffff\n        /* \"#utility.yul\":6464:6469   */\n      dup3\n        /* \"#utility.yul\":6461:6538   */\n      eq\n        /* \"#utility.yul\":6458:6561   */\n      iszero\n      tag_137\n      jumpi\n        /* \"#utility.yul\":6541:6559   */\n      tag_138\n      tag_139\n      jump\t// in\n    tag_138:\n        /* \"#utility.yul\":6458:6561   */\n    tag_137:\n        /* \"#utility.yul\":6588:6589   */\n      0x01\n        /* \"#utility.yul\":6581:6586   */\n      dup3\n        /* \"#utility.yul\":6577:6590   */\n      add\n        /* \"#utility.yul\":6570:6590   */\n      swap1\n      pop\n        /* \"#utility.yul\":6363:6596   */\n      swap2\n      swap1\n      pop\n      jump\t// out\n        /* \"#utility.yul\":6602:6782   */\n    tag_139:\n        /* \"#utility.yul\":6650:6727   */\n      0x4e487b7100000000000000000000000000000000000000000000000000000000\n        /* \"#utility.yul\":6647:6648   */\n      0x00\n        /* \"#utility.yul\":6640:6728   */\n      mstore\n        /* \"#utility.yul\":6747:6751   */\n      0x11\n        /* \"#utility.yul\":6744:6745   */\n      0x04\n        /* \"#utility.yul\":6737:6752   */\n      mstore\n        /* \"#utility.yul\":6771:6775   */\n      0x24\n        /* \"#utility.yul\":6768:6769   */\n      0x00\n        /* \"#utility.yul\":6761:6776   */\n      revert\n        /* \"#utility.yul\":6788:6968   */\n    tag_134:\n        /* \"#utility.yul\":6836:6913   */\n      0x4e487b7100000000000000000000000000000000000000000000000000000000\n        /* \"#utility.yul\":6833:6834   */\n      0x00\n        /* \"#utility.yul\":6826:6914   */\n      mstore\n        /* \"#utility.yul\":6933:6937   */\n      0x22\n        /* \"#utility.yul\":6930:6931   */\n      0x04\n        /* \"#utility.yul\":6923:6938   */\n      mstore\n        /* \"#utility.yul\":6957:6961   */\n      0x24\n        /* \"#utility.yul\":6954:6955   */\n      0x00\n        /* \"#utility.yul\":6947:6962   */\n      revert\n        /* \"#utility.yul\":7097:7214   */\n    tag_61:\n        /* \"#utility.yul\":7206:7207   */\n      0x00\n        /* \"#utility.yul\":7203:7204   */\n      dup1\n        /* \"#utility.yul\":7196:7208   */\n      revert\n        /* \"#utility.yul\":7220:7322   */\n    tag_80:\n        /* \"#utility.yul\":7261:7267   */\n      0x00\n        /* \"#utility.yul\":7312:7314   */\n      0x1f\n        /* \"#utility.yul\":7308:7315   */\n      not\n        /* \"#utility.yul\":7303:7305   */\n      0x1f\n        /* \"#utility.yul\":7296:7301   */\n      dup4\n        /* \"#utility.yul\":7292:7306   */\n      add\n        /* \"#utility.yul\":7288:7316   */\n      and\n        /* \"#utility.yul\":7278:7316   */\n      swap1\n      pop\n        /* \"#utility.yul\":7220:7322   */\n      swap2\n      swap1\n      pop\n      jump\t// out\n        /* \"#utility.yul\":7328:7491   */\n    tag_85:\n        /* \"#utility.yul\":7468:7483   */\n      0x416c726561647920766f74656400000000000000000000000000000000000000\n        /* \"#utility.yul\":7464:7465   */\n      0x00\n        /* \"#utility.yul\":7456:7462   */\n      dup3\n        /* \"#utility.yul\":7452:7466   */\n      add\n        /* \"#utility.yul\":7445:7484   */\n      mstore\n        /* \"#utility.yul\":7328:7491   */\n      pop\n      jump\t// out\n        /* \"#utility.yul\":7497:7664   */\n    tag_90:\n        /* \"#utility.yul\":7637:7656   */\n      0x496e76616c69642063616e646964617465000000000000000000000000000000\n        /* \"#utility.yul\":7633:7634   */\n      0x00\n        /* \"#utility.yul\":7625:7631   */\n      dup3\n        /* \"#utility.yul\":7621:7635   */\n      add\n        /* \"#utility.yul\":7614:7657   */\n      mstore\n        /* \"#utility.yul\":7497:7664   */\n      pop\n      jump\t// out\n        /* \"#utility.yul\":7670:7834   */\n    tag_95:\n        /* \"#utility.yul\":7810:7826   */\n      0x456c656374696f6e20656e646564000000000000000000000000000000000000\n        /* \"#utility.yul\":7806:7807   */\n      0x00\n        /* \"#utility.yul\":7798:7804   */\n      dup3\n        /* \"#utility.yul\":7794:7808   */\n      add\n        /* \"#utility.yul\":7787:7827   */\n      mstore\n        /* \"#utility.yul\":7670:7834   */\n      pop\n      jump\t// out\n        /* \"#utility.yul\":7840:7962   */\n    tag_53:\n        /* \"#utility.yul\":7913:7937   */\n      tag_150\n        /* \"#utility.yul\":7931:7936   */\n      dup2\n        /* \"#utility.yul\":7913:7937   */\n      tag_118\n      jump\t// in\n    tag_150:\n        /* \"#utility.yul\":7906:7911   */\n      dup2\n        /* \"#utility.yul\":7903:7938   */\n      eq\n        /* \"#utility.yul\":7893:7956   */\n      tag_151\n      jumpi\n        /* \"#utility.yul\":7952:7953   */\n      0x00\n        /* \"#utility.yul\":7949:7950   */\n      dup1\n        /* \"#utility.yul\":7942:7954   */\n      revert\n        /* \"#utility.yul\":7893:7956   */\n    tag_151:\n        /* \"#utility.yul\":7840:7962   */\n      pop\n      jump\t// out\n        /* \"#utility.yul\":7968:8090   */\n    tag_57:\n        /* \"#utility.yul\":8041:8065   */\n      tag_153\n        /* \"#utility.yul\":8059:8064   */\n      dup2\n        /* \"#utility.yul\":8041:8065   */\n      tag_99\n      jump\t// in\n    tag_153:\n        /* \"#utility.yul\":8034:8039   */\n      dup2\n        /* \"#utility.yul\":8031:8066   */\n      eq\n        /* \"#utility.yul\":8021:8084   */\n      tag_154\n      jumpi\n        /* \"#utility.yul\":8080:8081   */\n      0x00\n        /* \"#utility.yul\":8077:8078   */\n      dup1\n        /* \"#utility.yul\":8070:8082   */\n      revert\n        /* \"#utility.yul\":8021:8084   */\n    tag_154:\n        /* \"#utility.yul\":7968:8090   */\n      pop\n      jump\t// out\n\n    auxdata: 0xa264697066735822122057c0abc26cb38d60e6ec0c771ec3ac8ef0516583cf37cd52b0e4e6e3f99384ca64736f6c63430008070033\n}\n",
				"bytecode": {
					"linkReferences": {},
					"object": "608060405260016000806101000a81548160ff0219169083151502179055503480156200002b57600080fd5b50620000726040518060400160405280600b81526020017f43616e6469646174652031000000000000000000000000000000000000000000815250620002ee60201b60201c565b620000b86040518060400160405280600b81526020017f43616e6469646174652032000000000000000000000000000000000000000000815250620002ee60201b60201c565b620000fe6040518060400160405280600b81526020017f43616e6469646174652033000000000000000000000000000000000000000000815250620002ee60201b60201c565b620001446040518060400160405280600b81526020017f43616e6469646174652034000000000000000000000000000000000000000000815250620002ee60201b60201c565b6200018a6040518060400160405280600b81526020017f43616e6469646174652035000000000000000000000000000000000000000000815250620002ee60201b60201c565b620001d06040518060400160405280600b81526020017f43616e6469646174652036000000000000000000000000000000000000000000815250620002ee60201b60201c565b620002166040518060400160405280600b81526020017f43616e6469646174652037000000000000000000000000000000000000000000815250620002ee60201b60201c565b6200025c6040518060400160405280600b81526020017f43616e6469646174652038000000000000000000000000000000000000000000815250620002ee60201b60201c565b620002a26040518060400160405280600b81526020017f43616e6469646174652039000000000000000000000000000000000000000000815250620002ee60201b60201c565b620002e86040518060400160405280600c81526020017f43616e6469646174652031300000000000000000000000000000000000000000815250620002ee60201b60201c565b62000510565b60036000815480929190620003039062000464565b91905055506040518060600160405280600354815260200182815260200160008152506002600060035481526020019081526020016000206000820151816000015560208201518160010190805190602001906200036392919062000374565b506040820151816002015590505050565b82805462000382906200042e565b90600052602060002090601f016020900481019282620003a65760008555620003f2565b82601f10620003c157805160ff1916838001178555620003f2565b82800160010185558215620003f2579182015b82811115620003f1578251825591602001919060010190620003d4565b5b50905062000401919062000405565b5090565b5b808211156200042057600081600090555060010162000406565b5090565b6000819050919050565b600060028204905060018216806200044757607f821691505b602082108114156200045e576200045d620004e1565b5b50919050565b6000620004718262000424565b91507fffffffffffffffffffffffffffffffffffffffffffffffffffffffffffffffff821415620004a757620004a6620004b2565b5b600182019050919050565b7f4e487b7100000000000000000000000000000000000000000000000000000000600052601160045260246000fd5b7f4e487b7100000000000000000000000000000000000000000000000000000000600052602260045260246000fd5b61085180620005206000396000f3fe608060405234801561001057600080fd5b50600436106100575760003560e01c80630121b93f1461005c5780632d35a8a2146100785780633477ee2e14610096578063a3ec138d146100c8578063efbe1c1c146100f8575b600080fd5b6100766004803603810190610071919061042b565b610102565b005b6100806102e0565b60405161008d9190610593565b60405180910390f35b6100b060048036038101906100ab919061042b565b6102e6565b6040516100bf939291906105ae565b60405180910390f35b6100e260048036038101906100dd91906103fe565b610398565b6040516100ef9190610518565b60405180910390f35b6101006103b8565b005b600160003373ffffffffffffffffffffffffffffffffffffffff1673ffffffffffffffffffffffffffffffffffffffff16815260200190815260200160002060009054906101000a900460ff161561018f576040517f08c379a000000000000000000000000000000000000000000000000000000000815260040161018690610533565b60405180910390fd5b6000811180156101a157506003548111155b6101e0576040517f08c379a00000000000000000000000000000000000000000000000000000000081526004016101d790610553565b60405180910390fd5b60008054906101000a900460ff1661022d576040517f08c379a000000000000000000000000000000000000000000000000000000000815260040161022490610573565b60405180910390fd5b60018060003373ffffffffffffffffffffffffffffffffffffffff1673ffffffffffffffffffffffffffffffffffffffff16815260200190815260200160002060006101000a81548160ff0219169083151502179055506002600082815260200190815260200160002060020160008154809291906102ab906106b5565b9190505550807ffff3c900d938d21d0990d786e819f29b8d05c1ef587b462b939609625b684b1660405160405180910390a250565b60035481565b600260205280600052604060002060009150905080600001549080600101805461030f90610683565b80601f016020809104026020016040519081016040528092919081815260200182805461033b90610683565b80156103885780601f1061035d57610100808354040283529160200191610388565b820191906000526020600020905b81548152906001019060200180831161036b57829003601f168201915b5050505050908060020154905083565b60016020528060005260406000206000915054906101000a900460ff1681565b60008060006101000a81548160ff021916908315150217905550565b6000813590506103e3816107ed565b92915050565b6000813590506103f881610804565b92915050565b6000602082840312156104145761041361075c565b5b6000610422848285016103d4565b91505092915050565b6000602082840312156104415761044061075c565b5b600061044f848285016103e9565b91505092915050565b6104618161061a565b82525050565b6000610472826105ec565b61047c81856105f7565b935061048c818560208601610650565b61049581610761565b840191505092915050565b60006104ad600d836105f7565b91506104b882610772565b602082019050919050565b60006104d06011836105f7565b91506104db8261079b565b602082019050919050565b60006104f3600e836105f7565b91506104fe826107c4565b602082019050919050565b61051281610646565b82525050565b600060208201905061052d6000830184610458565b92915050565b6000602082019050818103600083015261054c816104a0565b9050919050565b6000602082019050818103600083015261056c816104c3565b9050919050565b6000602082019050818103600083015261058c816104e6565b9050919050565b60006020820190506105a86000830184610509565b92915050565b60006060820190506105c36000830186610509565b81810360208301526105d58185610467565b90506105e46040830184610509565b949350505050565b600081519050919050565b600082825260208201905092915050565b600061061382610626565b9050919050565b60008115159050919050565b600073ffffffffffffffffffffffffffffffffffffffff82169050919050565b6000819050919050565b60005b8381101561066e578082015181840152602081019050610653565b8381111561067d576000848401525b50505050565b6000600282049050600182168061069b57607f821691505b602082108114156106af576106ae61072d565b5b50919050565b60006106c082610646565b91507fffffffffffffffffffffffffffffffffffffffffffffffffffffffffffffffff8214156106f3576106f26106fe565b5b600182019050919050565b7f4e487b7100000000000000000000000000000000000000000000000000000000600052601160045260246000fd5b7f4e487b7100000000000000000000000000000000000000000000000000000000600052602260045260246000fd5b600080fd5b6000601f19601f8301169050919050565b7f416c726561647920766f74656400000000000000000000000000000000000000600082015250565b7f496e76616c69642063616e646964617465000000000000000000000000000000600082015250565b7f456c656374696f6e20656e646564000000000000000000000000000000000000600082015250565b6107f681610608565b811461080157600080fd5b50565b61080d81610646565b811461081857600080fd5b5056fea264697066735822122057c0abc26cb38d60e6ec0c771ec3ac8ef0516583cf37cd52b0e4e6e3f99384ca64736f6c63430008070033",
					"opcodes": "PUSH1 0x80 PUSH1 0x40 MSTORE PUSH1 0x1 PUSH1 0x0 DUP1 PUSH2 0x100 EXP DUP2 SLOAD DUP2 PUSH1 0xFF MUL NOT AND SWAP1 DUP4 ISZERO ISZERO MUL OR SWAP1 SSTORE POP CALLVALUE DUP1 ISZERO PUSH3 0x2B JUMPI PUSH1 0x0 DUP1 REVERT JUMPDEST POP PUSH3 0x72 PUSH1 0x40 MLOAD DUP1 PUSH1 0x40 ADD PUSH1 0x40 MSTORE DUP1 PUSH1 0xB DUP2 MSTORE PUSH1 0x20 ADD PUSH32 0x43616E6469646174652031000000000000000000000000000000000000000000 DUP2 MSTORE POP PUSH3 0x2EE PUSH1 0x20 SHL PUSH1 0x20 SHR JUMP JUMPDEST PUSH3 0xB8 PUSH1 0x40 MLOAD DUP1 PUSH1 0x40 ADD PUSH1 0x40 MSTORE DUP1 PUSH1 0xB DUP2 MSTORE PUSH1 0x20 ADD PUSH32 0x43616E6469646174652032000000000000000000000000000000000000000000 DUP2 MSTORE POP PUSH3 0x2EE PUSH1 0x20 SHL PUSH1 0x20 SHR JUMP JUMPDEST PUSH3 0xFE PUSH1 0x40 MLOAD DUP1 PUSH1 0x40 ADD PUSH1 0x40 MSTORE DUP1 PUSH1 0xB DUP2 MSTORE PUSH1 0x20 ADD PUSH32 0x43616E6469646174652033000000000000000000000000000000000000000000 DUP2 MSTORE POP PUSH3 0x2EE PUSH1 0x20 SHL PUSH1 0x20 SHR JUMP JUMPDEST PUSH3 0x144 PUSH1 0x40 MLOAD DUP1 PUSH1 0x40 ADD PUSH1 0x40 MSTORE DUP1 PUSH1 0xB DUP2 MSTORE PUSH1 0x20 ADD PUSH32 0x43616E6469646174652034000000000000000000000000000000000000000000 DUP2 MSTORE POP PUSH3 0x2EE PUSH1 0x20 SHL PUSH1 0x20 SHR JUMP JUMPDEST PUSH3 0x18A PUSH1 0x40 MLOAD DUP1 PUSH1 0x40 ADD PUSH1 0x40 MSTORE DUP1 PUSH1 0xB DUP2 MSTORE PUSH1 0x20 ADD PUSH32 0x43616E6469646174652035000000000000000000000000000000000000000000 DUP2 MSTORE POP PUSH3 0x2EE PUSH1 0x20 SHL PUSH1 0x20 SHR JUMP JUMPDEST PUSH3 0x1D0 PUSH1 0x40 MLOAD DUP1 PUSH1 0x40 ADD PUSH1 0x40 MSTORE DUP1 PUSH1 0xB DUP2 MSTORE PUSH1 0x20 ADD PUSH32 0x43616E6469646174652036000000000000000000000000000000000000000000 DUP2 MSTORE POP PUSH3 0x2EE PUSH1 0x20 SHL PUSH1 0x20 SHR JUMP JUMPDEST PUSH3 0x216 PUSH1 0x40 MLOAD DUP1 PUSH1 0x40 ADD PUSH1 0x40 MSTORE DUP1 PUSH1 0xB DUP2 MSTORE PUSH1 0x20 ADD PUSH32 0x43616E6469646174652037000000000000000000000000000000000000000000 DUP2 MSTORE POP PUSH3 0x2EE PUSH1 0x20 SHL PUSH1 0x20 SHR JUMP JUMPDEST PUSH3 0x25C PUSH1 0x40 MLOAD DUP1 PUSH1 0x40 ADD PUSH1 0x40 MSTORE DUP1 PUSH1 0xB DUP2 MSTORE PUSH1 0x20 ADD PUSH32 0x43616E6469646174652038000000000000000000000000000000000000000000 DUP2 MSTORE POP PUSH3 0x2EE PUSH1 0x20 SHL PUSH1 0x20 SHR JUMP JUMPDEST PUSH3 0x2A2 PUSH1 0x40 MLOAD DUP1 PUSH1 0x40 ADD PUSH1 0x40 MSTORE DUP1 PUSH1 0xB DUP2 MSTORE PUSH1 0x20 ADD PUSH32 0x43616E6469646174652039000000000000000000000000000000000000000000 DUP2 MSTORE POP PUSH3 0x2EE PUSH1 0x20 SHL PUSH1 0x20 SHR JUMP JUMPDEST PUSH3 0x2E8 PUSH1 0x40 MLOAD DUP1 PUSH1 0x40 ADD PUSH1 0x40 MSTORE DUP1 PUSH1 0xC DUP2 MSTORE PUSH1 0x20 ADD PUSH32 0x43616E6469646174652031300000000000000000000000000000000000000000 DUP2 MSTORE POP PUSH3 0x2EE PUSH1 0x20 SHL PUSH1 0x20 SHR JUMP JUMPDEST PUSH3 0x510 JUMP JUMPDEST PUSH1 0x3 PUSH1 0x0 DUP2 SLOAD DUP1 SWAP3 SWAP2 SWAP1 PUSH3 0x303 SWAP1 PUSH3 0x464 JUMP JUMPDEST SWAP2 SWAP1 POP SSTORE POP PUSH1 0x40 MLOAD DUP1 PUSH1 0x60 ADD PUSH1 0x40 MSTORE DUP1 PUSH1 0x3 SLOAD DUP2 MSTORE PUSH1 0x20 ADD DUP3 DUP2 MSTORE PUSH1 0x20 ADD PUSH1 0x0 DUP2 MSTORE POP PUSH1 0x2 PUSH1 0x0 PUSH1 0x3 SLOAD DUP2 MSTORE PUSH1 0x20 ADD SWAP1 DUP2 MSTORE PUSH1 0x20 ADD PUSH1 0x0 KECCAK256 PUSH1 0x0 DUP3 ADD MLOAD DUP2 PUSH1 0x0 ADD SSTORE PUSH1 0x20 DUP3 ADD MLOAD DUP2 PUSH1 0x1 ADD SWAP1 DUP1 MLOAD SWAP1 PUSH1 0x20 ADD SWAP1 PUSH3 0x363 SWAP3 SWAP2 SWAP1 PUSH3 0x374 JUMP JUMPDEST POP PUSH1 0x40 DUP3 ADD MLOAD DUP2 PUSH1 0x2 ADD SSTORE SWAP1 POP POP POP JUMP JUMPDEST DUP3 DUP1 SLOAD PUSH3 0x382 SWAP1 PUSH3 0x42E JUMP JUMPDEST SWAP1 PUSH1 0x0 MSTORE PUSH1 0x20 PUSH1 0x0 KECCAK256 SWAP1 PUSH1 0x1F ADD PUSH1 0x20 SWAP1 DIV DUP2 ADD SWAP3 DUP3 PUSH3 0x3A6 JUMPI PUSH1 0x0 DUP6 SSTORE PUSH3 0x3F2 JUMP JUMPDEST DUP3 PUSH1 0x1F LT PUSH3 0x3C1 JUMPI DUP1 MLOAD PUSH1 0xFF NOT AND DUP4 DUP1 ADD OR DUP6 SSTORE PUSH3 0x3F2 JUMP JUMPDEST DUP3 DUP1 ADD PUSH1 0x1 ADD DUP6 SSTORE DUP3 ISZERO PUSH3 0x3F2 JUMPI SWAP2 DUP3 ADD JUMPDEST DUP3 DUP2 GT ISZERO PUSH3 0x3F1 JUMPI DUP3 MLOAD DUP3 SSTORE SWAP2 PUSH1 0x20 ADD SWAP2 SWAP1 PUSH1 0x1 ADD SWAP1 PUSH3 0x3D4 JUMP JUMPDEST JUMPDEST POP SWAP1 POP PUSH3 0x401 SWAP2 SWAP1 PUSH3 0x405 JUMP JUMPDEST POP SWAP1 JUMP JUMPDEST JUMPDEST DUP1 DUP3 GT ISZERO PUSH3 0x420 JUMPI PUSH1 0x0 DUP2 PUSH1 0x0 SWAP1 SSTORE POP PUSH1 0x1 ADD PUSH3 0x406 JUMP JUMPDEST POP SWAP1 JUMP JUMPDEST PUSH1 0x0 DUP2 SWAP1 POP SWAP2 SWAP1 POP JUMP JUMPDEST PUSH1 0x0 PUSH1 0x2 DUP3 DIV SWAP1 POP PUSH1 0x1 DUP3 AND DUP1 PUSH3 0x447 JUMPI PUSH1 0x7F DUP3 AND SWAP2 POP JUMPDEST PUSH1 0x20 DUP3 LT DUP2 EQ ISZERO PUSH3 0x45E JUMPI PUSH3 0x45D PUSH3 0x4E1 JUMP JUMPDEST JUMPDEST POP SWAP2 SWAP1 POP JUMP JUMPDEST PUSH1 0x0 PUSH3 0x471 DUP3 PUSH3 0x424 JUMP JUMPDEST SWAP2 POP PUSH32 0xFFFFFFFFFFFFFFFFFFFFFFFFFFFFFFFFFFFFFFFFFFFFFFFFFFFFFFFFFFFFFFFF DUP3 EQ ISZERO PUSH3 0x4A7 JUMPI PUSH3 0x4A6 PUSH3 0x4B2 JUMP JUMPDEST JUMPDEST PUSH1 0x1 DUP3 ADD SWAP1 POP SWAP2 SWAP1 POP JUMP JUMPDEST PUSH32 0x4E487B7100000000000000000000000000000000000000000000000000000000 PUSH1 0x0 MSTORE PUSH1 0x11 PUSH1 0x4 MSTORE PUSH1 0x24 PUSH1 0x0 REVERT JUMPDEST PUSH32 0x4E487B7100000000000000000000000000000000000000000000000000000000 PUSH1 0x0 MSTORE PUSH1 0x22 PUSH1 0x4 MSTORE PUSH1 0x24 PUSH1 0x0 REVERT JUMPDEST PUSH2 0x851 DUP1 PUSH3 0x520 PUSH1 0x0 CODECOPY PUSH1 0x0 RETURN INVALID PUSH1 0x80 PUSH1 0x40 MSTORE CALLVALUE DUP1 ISZERO PUSH2 0x10 JUMPI PUSH1 0x0 DUP1 REVERT JUMPDEST POP PUSH1 0x4 CALLDATASIZE LT PUSH2 0x57 JUMPI PUSH1 0x0 CALLDATALOAD PUSH1 0xE0 SHR DUP1 PUSH4 0x121B93F EQ PUSH2 0x5C JUMPI DUP1 PUSH4 0x2D35A8A2 EQ PUSH2 0x78 JUMPI DUP1 PUSH4 0x3477EE2E EQ PUSH2 0x96 JUMPI DUP1 PUSH4 0xA3EC138D EQ PUSH2 0xC8 JUMPI DUP1 PUSH4 0xEFBE1C1C EQ PUSH2 0xF8 JUMPI JUMPDEST PUSH1 0x0 DUP1 REVERT JUMPDEST PUSH2 0x76 PUSH1 0x4 DUP1 CALLDATASIZE SUB DUP2 ADD SWAP1 PUSH2 0x71 SWAP2 SWAP1 PUSH2 0x42B JUMP JUMPDEST PUSH2 0x102 JUMP JUMPDEST STOP JUMPDEST PUSH2 0x80 PUSH2 0x2E0 JUMP JUMPDEST PUSH1 0x40 MLOAD PUSH2 0x8D SWAP2 SWAP1 PUSH2 0x593 JUMP JUMPDEST PUSH1 0x40 MLOAD DUP1 SWAP2 SUB SWAP1 RETURN JUMPDEST PUSH2 0xB0 PUSH1 0x4 DUP1 CALLDATASIZE SUB DUP2 ADD SWAP1 PUSH2 0xAB SWAP2 SWAP1 PUSH2 0x42B JUMP JUMPDEST PUSH2 0x2E6 JUMP JUMPDEST PUSH1 0x40 MLOAD PUSH2 0xBF SWAP4 SWAP3 SWAP2 SWAP1 PUSH2 0x5AE JUMP JUMPDEST PUSH1 0x40 MLOAD DUP1 SWAP2 SUB SWAP1 RETURN JUMPDEST PUSH2 0xE2 PUSH1 0x4 DUP1 CALLDATASIZE SUB DUP2 ADD SWAP1 PUSH2 0xDD SWAP2 SWAP1 PUSH2 0x3FE JUMP JUMPDEST PUSH2 0x398 JUMP JUMPDEST PUSH1 0x40 MLOAD PUSH2 0xEF SWAP2 SWAP1 PUSH2 0x518 JUMP JUMPDEST PUSH1 0x40 MLOAD DUP1 SWAP2 SUB SWAP1 RETURN JUMPDEST PUSH2 0x100 PUSH2 0x3B8 JUMP JUMPDEST STOP JUMPDEST PUSH1 0x1 PUSH1 0x0 CALLER PUSH20 0xFFFFFFFFFFFFFFFFFFFFFFFFFFFFFFFFFFFFFFFF AND PUSH20 0xFFFFFFFFFFFFFFFFFFFFFFFFFFFFFFFFFFFFFFFF AND DUP2 MSTORE PUSH1 0x20 ADD SWAP1 DUP2 MSTORE PUSH1 0x20 ADD PUSH1 0x0 KECCAK256 PUSH1 0x0 SWAP1 SLOAD SWAP1 PUSH2 0x100 EXP SWAP1 DIV PUSH1 0xFF AND ISZERO PUSH2 0x18F JUMPI PUSH1 0x40 MLOAD PUSH32 0x8C379A000000000000000000000000000000000000000000000000000000000 DUP2 MSTORE PUSH1 0x4 ADD PUSH2 0x186 SWAP1 PUSH2 0x533 JUMP JUMPDEST PUSH1 0x40 MLOAD DUP1 SWAP2 SUB SWAP1 REVERT JUMPDEST PUSH1 0x0 DUP2 GT DUP1 ISZERO PUSH2 0x1A1 JUMPI POP PUSH1 0x3 SLOAD DUP2 GT ISZERO JUMPDEST PUSH2 0x1E0 JUMPI PUSH1 0x40 MLOAD PUSH32 0x8C379A000000000000000000000000000000000000000000000000000000000 DUP2 MSTORE PUSH1 0x4 ADD PUSH2 0x1D7 SWAP1 PUSH2 0x553 JUMP JUMPDEST PUSH1 0x40 MLOAD DUP1 SWAP2 SUB SWAP1 REVERT JUMPDEST PUSH1 0x0 DUP1 SLOAD SWAP1 PUSH2 0x100 EXP SWAP1 DIV PUSH1 0xFF AND PUSH2 0x22D JUMPI PUSH1 0x40 MLOAD PUSH32 0x8C379A000000000000000000000000000000000000000000000000000000000 DUP2 MSTORE PUSH1 0x4 ADD PUSH2 0x224 SWAP1 PUSH2 0x573 JUMP JUMPDEST PUSH1 0x40 MLOAD DUP1 SWAP2 SUB SWAP1 REVERT JUMPDEST PUSH1 0x1 DUP1 PUSH1 0x0 CALLER PUSH20 0xFFFFFFFFFFFFFFFFFFFFFFFFFFFFFFFFFFFFFFFF AND PUSH20 0xFFFFFFFFFFFFFFFFFFFFFFFFFFFFFFFFFFFFFFFF AND DUP2 MSTORE PUSH1 0x20 ADD SWAP1 DUP2 MSTORE PUSH1 0x20 ADD PUSH1 0x0 KECCAK256 PUSH1 0x0 PUSH2 0x100 EXP DUP2 SLOAD DUP2 PUSH1 0xFF MUL NOT AND SWAP1 DUP4 ISZERO ISZERO MUL OR SWAP1 SSTORE POP PUSH1 0x2 PUSH1 0x0 DUP3 DUP2 MSTORE PUSH1 0x20 ADD SWAP1 DUP2 MSTORE PUSH1 0x20 ADD PUSH1 0x0 KECCAK256 PUSH1 0x2 ADD PUSH1 0x0 DUP2 SLOAD DUP1 SWAP3 SWAP2 SWAP1 PUSH2 0x2AB SWAP1 PUSH2 0x6B5 JUMP JUMPDEST SWAP2 SWAP1 POP SSTORE POP DUP1 PUSH32 0xFFF3C900D938D21D0990D786E819F29B8D05C1EF587B462B939609625B684B16 PUSH1 0x40 MLOAD PUSH1 0x40 MLOAD DUP1 SWAP2 SUB SWAP1 LOG2 POP JUMP JUMPDEST PUSH1 0x3 SLOAD DUP2 JUMP JUMPDEST PUSH1 0x2 PUSH1 0x20 MSTORE DUP1 PUSH1 0x0 MSTORE PUSH1 0x40 PUSH1 0x0 KECCAK256 PUSH1 0x0 SWAP2 POP SWAP1 POP DUP1 PUSH1 0x0 ADD SLOAD SWAP1 DUP1 PUSH1 0x1 ADD DUP1 SLOAD PUSH2 0x30F SWAP1 PUSH2 0x683 JUMP JUMPDEST DUP1 PUSH1 0x1F ADD PUSH1 0x20 DUP1 SWAP2 DIV MUL PUSH1 0x20 ADD PUSH1 0x40 MLOAD SWAP1 DUP2 ADD PUSH1 0x40 MSTORE DUP1 SWAP3 SWAP2 SWAP1 DUP2 DUP2 MSTORE PUSH1 0x20 ADD DUP3 DUP1 SLOAD PUSH2 0x33B SWAP1 PUSH2 0x683 JUMP JUMPDEST DUP1 ISZERO PUSH2 0x388 JUMPI DUP1 PUSH1 0x1F LT PUSH2 0x35D JUMPI PUSH2 0x100 DUP1 DUP4 SLOAD DIV MUL DUP4 MSTORE SWAP2 PUSH1 0x20 ADD SWAP2 PUSH2 0x388 JUMP JUMPDEST DUP3 ADD SWAP2 SWAP1 PUSH1 0x0 MSTORE PUSH1 0x20 PUSH1 0x0 KECCAK256 SWAP1 JUMPDEST DUP2 SLOAD DUP2 MSTORE SWAP1 PUSH1 0x1 ADD SWAP1 PUSH1 0x20 ADD DUP1 DUP4 GT PUSH2 0x36B JUMPI DUP3 SWAP1 SUB PUSH1 0x1F AND DUP3 ADD SWAP2 JUMPDEST POP POP POP POP POP SWAP1 DUP1 PUSH1 0x2 ADD SLOAD SWAP1 POP DUP4 JUMP JUMPDEST PUSH1 0x1 PUSH1 0x20 MSTORE DUP1 PUSH1 0x0 MSTORE PUSH1 0x40 PUSH1 0x0 KECCAK256 PUSH1 0x0 SWAP2 POP SLOAD SWAP1 PUSH2 0x100 EXP SWAP1 DIV PUSH1 0xFF AND DUP2 JUMP JUMPDEST PUSH1 0x0 DUP1 PUSH1 0x0 PUSH2 0x100 EXP DUP2 SLOAD DUP2 PUSH1 0xFF MUL NOT AND SWAP1 DUP4 ISZERO ISZERO MUL OR SWAP1 SSTORE POP JUMP JUMPDEST PUSH1 0x0 DUP2 CALLDATALOAD SWAP1 POP PUSH2 0x3E3 DUP2 PUSH2 0x7ED JUMP JUMPDEST SWAP3 SWAP2 POP POP JUMP JUMPDEST PUSH1 0x0 DUP2 CALLDATALOAD SWAP1 POP PUSH2 0x3F8 DUP2 PUSH2 0x804 JUMP JUMPDEST SWAP3 SWAP2 POP POP JUMP JUMPDEST PUSH1 0x0 PUSH1 0x20 DUP3 DUP5 SUB SLT ISZERO PUSH2 0x414 JUMPI PUSH2 0x413 PUSH2 0x75C JUMP JUMPDEST JUMPDEST PUSH1 0x0 PUSH2 0x422 DUP5 DUP3 DUP6 ADD PUSH2 0x3D4 JUMP JUMPDEST SWAP2 POP POP SWAP3 SWAP2 POP POP JUMP JUMPDEST PUSH1 0x0 PUSH1 0x20 DUP3 DUP5 SUB SLT ISZERO PUSH2 0x441 JUMPI PUSH2 0x440 PUSH2 0x75C JUMP JUMPDEST JUMPDEST PUSH1 0x0 PUSH2 0x44F DUP5 DUP3 DUP6 ADD PUSH2 0x3E9 JUMP JUMPDEST SWAP2 POP POP SWAP3 SWAP2 POP POP JUMP JUMPDEST PUSH2 0x461 DUP2 PUSH2 0x61A JUMP JUMPDEST DUP3 MSTORE POP POP JUMP JUMPDEST PUSH1 0x0 PUSH2 0x472 DUP3 PUSH2 0x5EC JUMP JUMPDEST PUSH2 0x47C DUP2 DUP6 PUSH2 0x5F7 JUMP JUMPDEST SWAP4 POP PUSH2 0x48C DUP2 DUP6 PUSH1 0x20 DUP7 ADD PUSH2 0x650 JUMP JUMPDEST PUSH2 0x495 DUP2 PUSH2 0x761 JUMP JUMPDEST DUP5 ADD SWAP2 POP POP SWAP3 SWAP2 POP POP JUMP JUMPDEST PUSH1 0x0 PUSH2 0x4AD PUSH1 0xD DUP4 PUSH2 0x5F7 JUMP JUMPDEST SWAP2 POP PUSH2 0x4B8 DUP3 PUSH2 0x772 JUMP JUMPDEST PUSH1 0x20 DUP3 ADD SWAP1 POP SWAP2 SWAP1 POP JUMP JUMPDEST PUSH1 0x0 PUSH2 0x4D0 PUSH1 0x11 DUP4 PUSH2 0x5F7 JUMP JUMPDEST SWAP2 POP PUSH2 0x4DB DUP3 PUSH2 0x79B JUMP JUMPDEST PUSH1 0x20 DUP3 ADD SWAP1 POP SWAP2 SWAP1 POP JUMP JUMPDEST PUSH1 0x0 PUSH2 0x4F3 PUSH1 0xE DUP4 PUSH2 0x5F7 JUMP JUMPDEST SWAP2 POP PUSH2 0x4FE DUP3 PUSH2 0x7C4 JUMP JUMPDEST PUSH1 0x20 DUP3 ADD SWAP1 POP SWAP2 SWAP1 POP JUMP JUMPDEST PUSH2 0x512 DUP2 PUSH2 0x646 JUMP JUMPDEST DUP3 MSTORE POP POP JUMP JUMPDEST PUSH1 0x0 PUSH1 0x20 DUP3 ADD SWAP1 POP PUSH2 0x52D PUSH1 0x0 DUP4 ADD DUP5 PUSH2 0x458 JUMP JUMPDEST SWAP3 SWAP2 POP POP JUMP JUMPDEST PUSH1 0x0 PUSH1 0x20 DUP3 ADD SWAP1 POP DUP2 DUP2 SUB PUSH1 0x0 DUP4 ADD MSTORE PUSH2 0x54C DUP2 PUSH2 0x4A0 JUMP JUMPDEST SWAP1 POP SWAP2 SWAP1 POP JUMP JUMPDEST PUSH1 0x0 PUSH1 0x20 DUP3 ADD SWAP1 POP DUP2 DUP2 SUB PUSH1 0x0 DUP4 ADD MSTORE PUSH2 0x56C DUP2 PUSH2 0x4C3 JUMP JUMPDEST SWAP1 POP SWAP2 SWAP1 POP JUMP JUMPDEST PUSH1 0x0 PUSH1 0x20 DUP3 ADD SWAP1 POP DUP2 DUP2 SUB PUSH1 0x0 DUP4 ADD MSTORE PUSH2 0x58C DUP2 PUSH2 0x4E6 JUMP JUMPDEST SWAP1 POP SWAP2 SWAP1 POP JUMP JUMPDEST PUSH1 0x0 PUSH1 0x20 DUP3 ADD SWAP1 POP PUSH2 0x5A8 PUSH1 0x0 DUP4 ADD DUP5 PUSH2 0x509 JUMP JUMPDEST SWAP3 SWAP2 POP POP JUMP JUMPDEST PUSH1 0x0 PUSH1 0x60 DUP3 ADD SWAP1 POP PUSH2 0x5C3 PUSH1 0x0 DUP4 ADD DUP7 PUSH2 0x509 JUMP JUMPDEST DUP2 DUP2 SUB PUSH1 0x20 DUP4 ADD MSTORE PUSH2 0x5D5 DUP2 DUP6 PUSH2 0x467 JUMP JUMPDEST SWAP1 POP PUSH2 0x5E4 PUSH1 0x40 DUP4 ADD DUP5 PUSH2 0x509 JUMP JUMPDEST SWAP5 SWAP4 POP POP POP POP JUMP JUMPDEST PUSH1 0x0 DUP2 MLOAD SWAP1 POP SWAP2 SWAP1 POP JUMP JUMPDEST PUSH1 0x0 DUP3 DUP3 MSTORE PUSH1 0x20 DUP3 ADD SWAP1 POP SWAP3 SWAP2 POP POP JUMP JUMPDEST PUSH1 0x0 PUSH2 0x613 DUP3 PUSH2 0x626 JUMP JUMPDEST SWAP1 POP SWAP2 SWAP1 POP JUMP JUMPDEST PUSH1 0x0 DUP2 ISZERO ISZERO SWAP1 POP SWAP2 SWAP1 POP JUMP JUMPDEST PUSH1 0x0 PUSH20 0xFFFFFFFFFFFFFFFFFFFFFFFFFFFFFFFFFFFFFFFF DUP3 AND SWAP1 POP SWAP2 SWAP1 POP JUMP JUMPDEST PUSH1 0x0 DUP2 SWAP1 POP SWAP2 SWAP1 POP JUMP JUMPDEST PUSH1 0x0 JUMPDEST DUP4 DUP2 LT ISZERO PUSH2 0x66E JUMPI DUP1 DUP3 ADD MLOAD DUP2 DUP5 ADD MSTORE PUSH1 0x20 DUP2 ADD SWAP1 POP PUSH2 0x653 JUMP JUMPDEST DUP4 DUP2 GT ISZERO PUSH2 0x67D JUMPI PUSH1 0x0 DUP5 DUP5 ADD MSTORE JUMPDEST POP POP POP POP JUMP JUMPDEST PUSH1 0x0 PUSH1 0x2 DUP3 DIV SWAP1 POP PUSH1 0x1 DUP3 AND DUP1 PUSH2 0x69B JUMPI PUSH1 0x7F DUP3 AND SWAP2 POP JUMPDEST PUSH1 0x20 DUP3 LT DUP2 EQ ISZERO PUSH2 0x6AF JUMPI PUSH2 0x6AE PUSH2 0x72D JUMP JUMPDEST JUMPDEST POP SWAP2 SWAP1 POP JUMP JUMPDEST PUSH1 0x0 PUSH2 0x6C0 DUP3 PUSH2 0x646 JUMP JUMPDEST SWAP2 POP PUSH32 0xFFFFFFFFFFFFFFFFFFFFFFFFFFFFFFFFFFFFFFFFFFFFFFFFFFFFFFFFFFFFFFFF DUP3 EQ ISZERO PUSH2 0x6F3 JUMPI PUSH2 0x6F2 PUSH2 0x6FE JUMP JUMPDEST JUMPDEST PUSH1 0x1 DUP3 ADD SWAP1 POP SWAP2 SWAP1 POP JUMP JUMPDEST PUSH32 0x4E487B7100000000000000000000000000000000000000000000000000000000 PUSH1 0x0 MSTORE PUSH1 0x11 PUSH1 0x4 MSTORE PUSH1 0x24 PUSH1 0x0 REVERT JUMPDEST PUSH32 0x4E487B7100000000000000000000000000000000000000000000000000000000 PUSH1 0x0 MSTORE PUSH1 0x22 PUSH1 0x4 MSTORE PUSH1 0x24 PUSH1 0x0 REVERT JUMPDEST PUSH1 0x0 DUP1 REVERT JUMPDEST PUSH1 0x0 PUSH1 0x1F NOT PUSH1 0x1F DUP4 ADD AND SWAP1 POP SWAP2 SWAP1 POP JUMP JUMPDEST PUSH32 0x416C726561647920766F74656400000000000000000000000000000000000000 PUSH1 0x0 DUP3 ADD MSTORE POP JUMP JUMPDEST PUSH32 0x496E76616C69642063616E646964617465000000000000000000000000000000 PUSH1 0x0 DUP3 ADD MSTORE POP JUMP JUMPDEST PUSH32 0x456C656374696F6E20656E646564000000000000000000000000000000000000 PUSH1 0x0 DUP3 ADD MSTORE POP JUMP JUMPDEST PUSH2 0x7F6 DUP2 PUSH2 0x608 JUMP JUMPDEST DUP2 EQ PUSH2 0x801 JUMPI PUSH1 0x0 DUP1 REVERT JUMPDEST POP JUMP JUMPDEST PUSH2 0x80D DUP2 PUSH2 0x646 JUMP JUMPDEST DUP2 EQ PUSH2 0x818 JUMPI PUSH1 0x0 DUP1 REVERT JUMPDEST POP JUMP INVALID LOG2 PUSH5 0x6970667358 0x22 SLT KECCAK256 JUMPI 0xC0 0xAB 0xC2 PUSH13 0xB38D60E6EC0C771EC3AC8EF051 PUSH6 0x83CF37CD52B0 0xE4 0xE6 0xE3 0xF9 SWAP4 DUP5 0xCA PUSH5 0x736F6C6343 STOP ADDMOD SMOD STOP CALLER "
				},
				"gasEstimates": {
					"creation": {
						"codeDepositCost": "425800",
						"executionCost": "infinite",
						"totalCost": "infinite"
					},
					"external": {
						"candidates(uint256)": "infinite",
						"candidatesCount()": "2429",
						"end()": "24477",
						"vote(uint256)": "infinite",
						"voters(address)": "2889"
					},
					"internal": {
						"addCandidate(string memory)": "infinite"
					}
				},
				"methodIdentifiers": {
					"candidates(uint256)": "3477ee2e",
					"candidatesCount()": "2d35a8a2",
					"end()": "efbe1c1c",
					"vote(uint256)": "0121b93f",
					"voters(address)": "a3ec138d"
				}
			},
			"storageLayout": {
				"storage": [
					{
						"astId": 11,
						"contract": "contracts/Election.sol:Election",
						"label": "goingon",
						"offset": 0,
						"slot": "0",
						"type": "t_bool"
					},
					{
						"astId": 15,
						"contract": "contracts/Election.sol:Election",
						"label": "voters",
						"offset": 0,
						"slot": "1",
						"type": "t_mapping(t_address,t_bool)"
					},
					{
						"astId": 20,
						"contract": "contracts/Election.sol:Election",
						"label": "candidates",
						"offset": 0,
						"slot": "2",
						"type": "t_mapping(t_uint256,t_struct(Candidate)8_storage)"
					},
					{
						"astId": 22,
						"contract": "contracts/Election.sol:Election",
						"label": "candidatesCount",
						"offset": 0,
						"slot": "3",
						"type": "t_uint256"
					}
				],
				"types": {
					"t_address": {
						"encoding": "inplace",
						"label": "address",
						"numberOfBytes": "20"
					},
					"t_bool": {
						"encoding": "inplace",
						"label": "bool",
						"numberOfBytes": "1"
					},
					"t_mapping(t_address,t_bool)": {
						"encoding": "mapping",
						"key": "t_address",
						"label": "mapping(address => bool)",
						"numberOfBytes": "32",
						"value": "t_bool"
					},
					"t_mapping(t_uint256,t_struct(Candidate)8_storage)": {
						"encoding": "mapping",
						"key": "t_uint256",
						"label": "mapping(uint256 => struct Election.Candidate)",
						"numberOfBytes": "32",
						"value": "t_struct(Candidate)8_storage"
					},
					"t_string_storage": {
						"encoding": "bytes",
						"label": "string",
						"numberOfBytes": "32"
					},
					"t_struct(Candidate)8_storage": {
						"encoding": "inplace",
						"label": "struct Election.Candidate",
						"members": [
							{
								"astId": 3,
								"contract": "contracts/Election.sol:Election",
								"label": "id",
								"offset": 0,
								"slot": "0",
								"type": "t_uint256"
							},
							{
								"astId": 5,
								"contract": "contracts/Election.sol:Election",
								"label": "name",
								"offset": 0,
								"slot": "1",
								"type": "t_string_storage"
							},
							{
								"astId": 7,
								"contract": "contracts/Election.sol:Election",
								"label": "voteCount",
								"offset": 0,
								"slot": "2",
								"type": "t_uint256"
							}
						],
						"numberOfBytes": "96"
					},
					"t_uint256": {
						"encoding": "inplace",
						"label": "uint256",
						"numberOfBytes": "32"
					}
				}
			},
			"userdoc": {
				"kind": "user",
				"methods": {},
				"version": 1
			}
		}
	}
}